:020000040000FA
:04000000E1EF08F034
:08000800056ED8CF06F0E0CF31
:1000100007F00001E9CF0DF0EACF08F0E1CF09F0D9
:10002000E2CF0AF0D9CF0BF0DACF0CF0F3CF14F017
:10003000F4CF15F0FACF16F000C00FF001C010F0A9
:1000400002C011F003C012F004C013F0A0AA2CEFFC
:1000500000F0A1BAF3EF06F00FC000F010C001F0FD
:1000600011C002F012C003F013C004F00E8E0DC0D8
:10007000E9FF08C0EAFF09C0E1FF0AC0E2FF0BC0C8
:10008000D9FF0CC0DAFF14C0F3FF15C0F4FF16C08F
:10009000FAFF055007C0E0FF06C0D8FF1000F76A5E
:1000A000AE0FF66E000EF7220900F55012000401A3
:1000B0000000000000000000000000000000F76ADF
:1000C000CE0FF66E000EF7220900F5501200400028
:1000D00080000000000000000000000000000000A0
:1000E00000000000000000000000000000000DAE55
:1000F00003D0F2CF0EF0F29EF76A100FF66E010EEB
:10010000F7220900F5500DAE02D00EBEF28E12009D
:100110004000080000000000000000000000000097
:1001200000000000000000000000000000000000CF
:10013000F76A400FF66E010EF7220900F550120023
:100140000600FF0901A10119002920150025FF75EE
:10015000089580810219002920750895809102C0B8
:10016000F76A700FF66E010EF7220900F5501200C3
:100170000000F76A820FF66E010EF7220900F550B3
:1001800012002000F76A940FF66E010EF7220900A4
:10019000F550120009022900010100803209040013
:1001A00000020300000009211101000122200007C4
:1001B00005810380000A0705010308000A00F76AA9
:1001C000CE0FF66E010EF7220900F5501200010065
:1001D000F76AE00FF66E010EF7220900F5501200E3
:1001E0001201000200000040111111110001010272
:1001F0000001F76A020FF66E020EF7220900F550B1
:10020000120004030904080374006D0063003A033C
:1002100074006D0063006F006E0065002000280010
:100220004300290020005500730062004800490087
:100230004400200055007900670075006C006100E3
:100240006D006100730069002000F2CF0EF0F29E95
:10025000F76A640FF66E020EF7220900F5500EBE23
:10026000F28E12000D0A2055534220436F6E6E65C8
:100270006374696E6700F2CF0EF0F29EF76A900F1A
:10028000F66E020EF7220900F5500EBEF28E120035
:100290000D0A20576169745F666F725F656E756DD8
:1002A00065726174696F6E00F2CF0EF0F29EF76AAC
:1002B000C20FF66E020EF7220900F5500EBEF28E46
:1002C00012000D0A2055534220436F6E6E65637411
:1002D00065640000F2CF0EF0F29EF76AEE0FF66E44
:1002E000020EF7220900F5500EBEF28E12000D0A22
:1002F00020504320434F4E4E454354454400F2CFD7
:100300000EF0F29EF76A180FF66E030EF722090040
:10031000F5500EBEF28E12000D0A205043204449C3
:1003200053434F4E4E45435445440000F2CF0EF028
:10033000F29EF76A460FF66E030EF7220900F5509B
:100340000EBEF28E12000D0A43686E6C3A20254CE8
:10035000642C204144433A20254C64200000F2CF15
:100360000EF0F29EF76A780FF66E030EF722090080
:10037000F5500EBEF28E12000D0A2050574D20533C
:10038000544152540000F2CF0EF0F29EF76AA00FD3
:10039000F66E030EF7220900F5500EBEF28E120023
:1003A0000D0A2050574D2053544F5000F2CF0EF0FD
:1003B000F29EF76AC60FF66E030EF7220900F5509B
:1003C0000EBEF28E12000D0A2050574D3A20254CD9
:1003D000642020445554593A20254C6400006D9205
:1003E00069946894FEEF06F06A6A689207EF07F076
:1003F000586A58520AE1036A5850270FE96E000EF6
:100400000320EA6EEF6A582AF4D71A6A010E1B6EAF
:10041000196A000C010E616F61510F080EE3700E36
:100420006125016E0F0E036ED8B0032A01C0E9FFEB
:1004300003C0EAFFEF6A612BEFD71E6A1D6A000C4A
:10044000400E0401016F050E036F026B880E006FF2
:10045000046B050E076F400E066F0001000C6A6A00
:10046000686A9F0E6B6E390E696E6E6AC1DFD2DFED
:10047000160E706E68A602D06896FCD76D98E0DF05
:10048000030E1F6E0DEF07F0698468986D8213EFFD
:1004900007F0689C19EF07F070A002D0D1DF7090D0
:1004A000689A1FEF07F05CC020F0000CFF0E206E72
:1004B000000C5A6A26523EE05A503F083BE31C505B
:1004C000FC0F2BE2040FA4EF02F0036A2550F2CFD9
:1004D0005CF0F29E57DE5CBEF28E5B6E1ED0036A4D
:1004E0002550F2CF5CF0F29E23DE5CBEF28E5B6E96
:1004F00014D0036A2550F2CF5CF0F29E7ADE5CBE27
:10050000F28E5B6E0AD0036A2550F2CF5CF0F29E49
:100510005FDE5CBEF28E5B6E00D0252A26065A5046
:100520005A2A036A400FE96E050E0320EA6E5BC08B
:10053000EFFFC0D7265204E15A50400801E0196A83
:100540005AC05CF0B0DF000CE824F76AF736630F9E
:10055000F66E050EF7220A00F550FA6E0800F55007
:10056000F96ECA04DE04F2040605256A1C6A050158
:100570000351010A000109E0030A0CE0010A0DE041
:10058000220A22E0030A32E058D0120E266E030E31
:100590001C6E55D0290E266E52D0020E1C6E036AB8
:1005A00005010251210FE96E000E0320EA6EEFCF24
:1005B00025F0036A2550F2CF5AF0F29E000119DEB1
:1005C0005ABEF28E266E3BD0120E256E253C01D00F
:1005D0000BD0036A2550F2CF5AF0F29ED3DD5ABEFB
:1005E000F28E266E2CD002D061DF35D0D890050176
:1005F0000435036AF2CF5AF0F29E0001B1DD090022
:10060000F5CF03F05ABEF28E256E253C01D013D0F3
:10061000010E1C6ED89005010435036AF2CF5AF022
:10062000F29E0001A6DD0900F5CF03F05ABEF28E5E
:10063000266E05D002D03ADF0ED038DF0CD005018F
:10064000075305E12650065D02E206C526F0010EBD
:10065000196E00012EDF000C595204E1040E1F6ECA
:10066000D9DEC1D0050E1F6E5C6E800E5B6E010E72
:100670005A6E5A500F08D8A0B6D05D6A036A5A5015
:10068000F2CF61F0F29E0BDD61BFF28E000A51E005
:10069000040E5D6ED8905A34036AF2CF61F0F29E78
:1006A00026DD0900F5CF03F061BFF28E5E6E03C058
:1006B0005FF05A50080DF350010F016E040E036EE7
:1006C000D8B0032A01C0E9FF03C0EAFF5EC0EFFF14
:1006D0005A50080DF350020F016E040E036ED8B08D
:1006E000032A01C0E9FF03C0EAFF5CC0ECFFED5242
:1006F0005BC0EFFFD8905A34036AF2CF61F0F29EEC
:10070000F6DC0900F5CF03F061BFF28E5B260350E3
:100710005C22880E606F5FB060815FB260835A5068
:10072000080DF3CF01F0040E01C0E9FFEA6E60C0CE
:10073000EFFF036A5A50F2CF61F0F29EB0DC61BF66
:10074000F28E000A31E05D825A50080DF350060F18
:10075000016E040E036ED8B0032A01C0E9FF03C086
:10076000EAFF5CC0ECFFED525BC0EFFFD8905A345B
:10077000036AF2CF61F0F29EA2DC0900F5CF03F02C
:1007800061BFF28E5B2603505C225A50080DF35075
:10079000040F016E040E036ED8B0032A01C0E9FFF6
:1007A00003C0EAFF400EEF6E5D50060802E10E0E38
:1007B0005D6E036A5A50F2CF61F0F29E70DC61BF49
:1007C000F28E020801E05D88700E5A24016E0F0E51
:1007D000036ED8B0032A01C0E9FF03C0EAFF5DC081
:1007E000EFFF5A2A46D73FEF04F0050101510001FF
:1007F0000DE0010A14E0020A1EE0060A27E0030ADF
:100800002CE00E0A2CE0010A30E03DD01BC040F580
:100810000501416B020E5C6E000145DE36D005011C
:10082000022D06D0010E1B165C6A00013CDE02D0D0
:1008300000013CDE2AD00501022D05D01B825C6A36
:10084000000131DE02D0000131DE1FD0020E196E30
:1008500002C524F05C6A27DE18D087DE16D01AC0E5
:1008600040F5010E5C6E1FDE10D00501025101083B
:1008700008E302C51AF002C559F00001EDD65C6A22
:1008800012DE000102D012DE00D077EF05F01AC0B0
:1008900059F005010151000107E00A0A0DE0010AC3
:1008A0002DE00D0A3DE03ED00501406B416B020E8C
:1008B0005C6E0001F8DD38D059521EE0010E595C23
:1008C000036AF2CF5BF0F29E7ADC5BBEF28E016EC1
:1008D0000501045DD8A002D000010ED0036A0451C6
:1008E000270FE96E000E0320EA6EEFCF40F5010EF0
:1008F0005C6E0001D8DD01D0D9DD16D059520EE072
:10090000036A05010451270FE96E000E0320EA6E09
:1009100002C5EFFF5C6A0001C6DD01D0C7DD04D06F
:1009200024DE02D0C3DD00D077EF05F05A9059BE27
:100930005A80599E5AA011D0036A5950F2CF5BF0E9
:10094000F29E4FEC00F05BBEF28E000A02E1000E58
:1009500001D0010E016E11D010D0036A5950F2CFB0
:100960005BF0F29E4FEC00F05BBEF28E000A02E1FB
:10097000000E01D0010E016E00D02FEF05F05A904D
:1009800059BE5A80599E5AA010D05950080DF350A4
:10099000040F016E040E036ED8B0032A01C0E9FFF4
:1009A00003C0EAFF880EEF6E09D05950080DF3CF4F
:1009B00001F0040E01C0E9FFEA6EEF6A3EEF05F0B8
:1009C0005A9059BE5A80599E5AA010D05950080DBD
:1009D000F350040F016E040E036ED8B0032A01C059
:1009E000E9FF03C0EAFF840EEF6E0AD05950080DEC
:1009F000F3CF01F0040E01C0E9FFEA6E840EEF6E42
:100A000044EF05F05A9059BE5A80599E5AA010D012
:100A10005950080DF350040F016E040E036ED8B048
:100A2000032A01C0E9FF03C0EAFFEFCF5BF00AD061
:100A30005950080DF3CF01F0040E01C0E9FFEA6E32
:100A4000EFCF5BF05BAE02D05BB402D0000E01D002
:100A5000010E016E4EEF05F004C559F067D7015243
:100A600029E005010151010A000105E0020A09E03F
:100A7000030A0DE01DD004C559F081D75C6A13DD6F
:100A800019D004C559F09CD75C6A0DDD13D005015F
:100A9000406B416B04C559F00001B4D7015204E02A
:100AA000010E0501406F0001020E5C6EFCDC02D0FD
:100AB000FDDC00D077EF05F00501015100D0000109
:100AC000F5DC00D077EF05F0196A050100517F0BC6
:100AD000000107E0010A06E0030A05E0230A04E03A
:100AE00004D083D6D4D6B8D7E7D7E0DC00D09EEFC9
:100AF00006F05950080DF3CF01F0040E01C0E9FFD4
:100B0000EA6EEFCF5BF05A50020806E15BAC02D010
:100B10005A6A02D0010E5A6E5A50030812E1840E2E
:100B20005B6E5950080DF350040F016E040E036EF6
:100B3000D8B0032A01C0E9FF03C0EAFF840EEF6EBC
:100B400009D05A2C03D0C80E5B6E04D05A5202E171
:100B5000880E5B6E036A010E026E5950006E05E04E
:100B6000D89002360336002EFBD70250FF0A006EE3
:100B7000FF0E031A00501D1603501E16D89059344C
:100B8000036AF2CF5EF0F29E77EC00F00900F5CF39
:100B900003F05EBEF28E5C6E03C05DF05950080D2E
:100BA000F350010F016E040E036ED8B0032A01C08A
:100BB000E9FF03C0EAFF5CC0EFFF5DB05B805DB2A0
:100BC0005B825950080DF3CF01F0040E01C0E9FF1C
:100BD000EA6E5BC0EFFF000C5950080DF350040F94
:100BE000016E040E036ED8B0032A01C0E9FF03C0F2
:100BF000EAFFEFCF5DF05DBE5BD05950080DF350BA
:100C0000050F016E040E036ED8B0032A01C0E9FF80
:100C100003C0EAFF5AC0EFFF5C50020816E15950CA
:100C2000080DF350040F016E040E036ED8B0032AB2
:100C300001C0E9FF03C0EAFFEFCF5DF05DAC02D079
:100C40005C6A02D0010E5C6E13D05C50040810E1A7
:100C50005950080DF3CF01F0040E01C0E9FFEA6E10
:100C6000EFCF5DF05DAC03D0010E5C6E01D05C6A2D
:100C70005C2C03D0C80E5D6E04D05C5202E1880E7D
:100C80005D6E5BB05D805BB25D825950080DF350C4
:100C9000040F016E040E036ED8B0032A01C0E9FFF1
:100CA00003C0EAFF5DC0EFFF010E016E03D000D06C
:100CB000000E016E000C595203E120EC02F00FD03F
:100CC000036A010E026E5950006E05E0D89002369C
:100CD0000336002EFBD702501D1203501E12000CCB
:100CE0005AC06EFF5A5203E0040E1F6E02D0020E6D
:100CF0001F6E80EF06F01A6A196A24C05AF0F0D706
:100D00008DEF06F0595209E1192C03D059EC02F08D
:100D100004D01950020801E1EED7000C6C30586E77
:100D2000583258321F0E58166C523BE104010051E4
:100D30003C0B34081BE1046B0001C6D6203C05D0F7
:100D4000596A030E5A6ED5DE0ED0596A020E5A6EDB
:100D5000D0DE2050FE0807E0596A5B6A20C05AF0D6
:100D6000040E5C6E39DF6D9819D0040100513C0B04
:100D7000040815E1596A00019EDF596A020E5A6E95
:100D8000B8DE2050FE080AE0203C01D007D0596AA6
:100D90005B6A20C05AF0010E5C6E1EDF040120D099
:100DA00000016C50040812E1FF0E206E596AAADFA0
:100DB000203C01D008D0596A5B6A20C05AF0020E6C
:100DC0005C6E0ADF02D020EC02F009D06CB404D0D3
:100DD00058C059F070DF03D058C059F093DF0401B8
:100DE000000124EF07F01F5201E12FD068522DE0DF
:100DF00068A404D069A402D0EFEF01F06DA201D085
:100E000024D068A204D069A202D0F4EF01F068A057
:100E100004D069A002D02FEF02F068A804D069A81E
:100E200002D044EF02F068AC04D069AC02D049EFC4
:100E300002F068AA04D069AA02D04CEF02F068A6BA
:100E400004D069A602D06AD76896A19A2CEF00F068
:100E5000F29CF29EF2BEFDD7FF0E926E000E946ED3
:100E6000956EC150C00B0D09C16EC090C082C09478
:100E7000C08EC2808B928B940C0EBD6EB76A17EF3A
:100E800009F06D6A696A080E6F6E94503009946EAD
:100E90001F6A186AF2BE188EF29EF8EC01F018BEB6
:100EA000F28E1E6A1D6A78EF07F0186AF2BE188E7D
:100EB000F29EF8EC01F018BEF28E6D6A140E6F6EA1
:100EC000696A6D86010E1F6E69EF07F06DB601D07D
:100ED000ECD71F2C0BD06DBA09D0686A696AA08A5A
:100EE000C00EF212110E696E020E1F6E000CC9D7F1
:100EF000EDDF1F500208FCE118EF09F01A5202E181
:100F00000400FCD727EF09F04950080DF350020FF9
:100F1000016E040E036ED8B0032A01C0E9FF03C0BE
:100F2000EAFFECCF03F0ED52EFCF4EF003C04FF0ED
:100F30004950080DF350010F016E040E036ED8B036
:100F4000032A01C0E9FF03C0EAFFEF50036A516EB4
:100F500003C052F04950080DF3CF01F0040E01C058
:100F6000E9FFEA6EEFCF50F050B0528050B252829B
:100F700052504D5C08E303E14C50515C04E252C016
:100F80004DF051C04CF0526A516A52504D5C1AE318
:100F900003E14C50515C16E24EC0E9FF4FC0EAFF3E
:100FA000EFCF55F04BC0EAFF4AC0E9FF55C0EFFF55
:100FB0004A2AD8B44B2A4E2AD8B44F2A512AD8B438
:100FC000522AE3D74CC001F04DC002F0F3EF07F016
:100FD00044C049F046C04BF045C04AF048C04DF00F
:100FE00047C04CF091D702C048F001C047F0186AE2
:100FF000F2BE188EF29E44C059F0020E5A6E79DD90
:1010000018BEF28E47C001F048C002F045EF09F06B
:10101000EACF4EF0E9CF4DF047AE08D04D8E4DA847
:101020004D2A461E471E462AD8B4472A4738F0099B
:10103000496E4926E20F4A6E320F4C6E47500F0B35
:101040004A264A264C26E90F4B6E4B264B2646383D
:101050000F0B4B264C264B364C364C1E4C3646500E
:101060000F0B4C264936070E486E0A0E4B064C26CF
:10107000FDE34A064B26FDE349064A26FDE3480602
:101080004926FDE3EA6A480EE96E070E4D144D9CB1
:10109000E9064D1407E14DB8E92A4DB803D0200EFA
:1010A000006E1CD0E9264C0EE95CD8B44D8CEF5094
:1010B000006E08E14DBC06D04DB814D04DB602D03C
:1010C000200E0BD04DAE06D02D0E006EED504D9C77
:1010D0004D9E04D04D864D98300E002600509EA89F
:1010E000FED7AD6EEE504DACDED7000C4650080D6D
:1010F000F350040F016E040E036ED8B0032A01C032
:10110000E9FF03C0EAFFEFCF4EF04EBE45D0465098
:10111000080DF350060F016E040E036ED8B0032ABB
:1011200001C0E9FF03C0EAFFECCF03F0ED52EFCFBF
:101130004FF003C050F04D6A4C6A4D504A5C1AE3C0
:1011400003E149504C5C16E247C0E9FF48C0EAFFA2
:10115000EFCF53F050C0EAFF4FC0E9FF53C0EFFF9D
:101160004F2AD8B4502A472AD8B4482A4C2AD8B48F
:101170004D2AE3D7186AF2BE188EF29E46C059F087
:101180004AC05BF049C05AF04BC05CF025DD18BE88
:10119000F28E015003D000D0000E016EDFEF08F098
:1011A0004450306E45C031F0010E466E486A300E34
:1011B000476E4A6A800E496E020E4B6E97D78DEFCE
:1011C0000AF0F86AD09E0D8EEA6AE96AB886080EBF
:1011D000AF6E020EB06EA60EAC6E900EAB6EC1502E
:1011E000C00B0F09C16E070EB46E1F6A216A040E90
:1011F000226E0C0E236E266A386A396AFF0E3A6E2A
:101200003B6A800E3C6E3D6A3E6A3F6A100E406E3D
:10121000416A446A445025EC01F0442A006E0050B3
:101220009EA8FED7AD6E110E445CF4E111D65FD6D8
:101230004DDE446A44503BEC01F0442A006E0050FD
:101240009EA8FED7AD6E170E445CF4E157D61A5235
:101250000DE0446A445054EC01F0442A006E005002
:101260009EA8FED7AD6E100E445CF4E18A901A522F
:10127000D8B454D11DA251D1010E446E466A280E35
:10128000456E486A080E476EA3D62850430A11E0FF
:10129000060A1DE0040A29E0110AD8B46ED0030A38
:1012A000D8B49FD0170AD8B4AED0020AD8B4E2D0CE
:1012B00033D1446A44506AEC01F0442A006E005075
:1012C0009EA8FED7AD6E0F0E445CF4E126D1446AB1
:1012D00044507FEC01F0442A006E00509EA8FED7D7
:1012E000AD6E120E445CF4E118D13F6A29C03EF0A5
:1012F0003E34006E3F34016E00360136FC0E00169F
:10130000C250C30B0010C26EC282C2B2FED7C3CF9E
:1013100038F0C4CF39F0446A445096EC01F0442AC6
:10132000006E00509EA8FED7AD6E080E445CF4E13E
:10133000100EE96E3FC047F03EC046F069DE0B0E6E
:10134000456E455096EC01F0452A006E00509EA86F
:10135000FED7AD6E120E455CF4E1100EE96E39C099
:1013600047F038C046F054DE200E9EA8FED7AD6E82
:1013700039C045F038C044F013D73CC043F0416A4F
:1013800029C040F0402C08D0415206E1000E04096B
:10139000CA6E3AC0CBFF15D04050040808E1415254
:1013A00006E1000E0509CA6E3AC0CBFF0AD04050D4
:1013B000100807E1415205E1000E0609CA6E3AC065
:1013C000CBFF43C0BEFF446A4450AFEC01F0442A57
:1013D000006E00509EA8FED7AD6E0C0E445CF4E18A
:1013E0009CD0BE6ABD50CF0BBD6E446A4450C3EC66
:1013F00001F0442A006E00509EA8FED7AD6E0B0E81
:10140000445CF4E18AD03D6A29C03CF03D500008BC
:1014100003E23D6AFF0E3C6E3CC043F043C0BEFF9A
:10142000446A4450D6EC01F0442A006E00509EA855
:10143000FED7AD6E080E445CF4E1100EE96E3BC0C1
:1014400047F03AC046F0E4DD0B0E456E4550D6EC51
:1014500001F0452A006E00509EA8FED7AD6E130E17
:10146000455CF4E1100EE96E3DC047F03CC046F02B
:10147000CFDD53D03B6A29C03AF03B50000803E26D
:101480003B6AFF0E3A6E402C08D0415206E1000E36
:101490000409CA6E3AC0CBFF15D04050040808E1D9
:1014A000415206E1000E0509CA6E3AC0CBFF0AD0D0
:1014B0004050100807E1415205E1000E0609CA6ECE
:1014C0003AC0CBFF446A4450D6EC01F0442A006E87
:1014D00000509EA8FED7AD6E080E445CF4E1100EDD
:1014E000E96E3BC047F03AC046F092DD0B0E456E08
:1014F0004550D6EC01F0452A006E00509EA8FED75C
:10150000AD6E130E455CF4E1100EE96E3DC047F080
:101510003CC046F07DDD01D000D0A9D6A8D603009E
:020000040030CA
:0E000000240E3E1E000381000FC00FE00F40D3
:00000001FF
;PIC18F4550
