:020000040000FA
:04000000DCEF08F039
:08000800056ED8CF06F0E0CF31
:1000100007F00001E9CF0DF0EACF08F0E1CF09F0D9
:10002000E2CF0AF0D9CF0BF0DACF0CF0F3CF14F017
:10003000F4CF15F0FACF16F000C00FF001C010F0A9
:1000400002C011F003C012F004C013F0A0AA2CEFFC
:1000500000F0A1BAEEEF06F00FC000F010C001F002
:1000600011C002F012C003F013C004F00E8E0DC0D8
:10007000E9FF08C0EAFF09C0E1FF0AC0E2FF0BC0C8
:10008000D9FF0CC0DAFF14C0F3FF15C0F4FF16C08F
:10009000FAFF055007C0E0FF06C0D8FF1000F76A5E
:1000A000AE0FF66E000EF7220900F55012000401A3
:1000B0000000000000000000000000000000F76ADF
:1000C000CE0FF66E000EF7220900F5501200400028
:1000D00080000000000000000000000000000000A0
:1000E00000000000000000000000000000000DAE55
:1000F00003D0F2CF0EF0F29EF76A100FF66E010EEB
:10010000F7220900F5500DAE02D00EBEF28E12009D
:100110004000080000000000000000000000000097
:1001200000000000000000000000000000000000CF
:10013000F76A400FF66E010EF7220900F550120023
:100140000600FF0901A10119002920150025FF75EE
:10015000089580810219002920750895809102C0B8
:10016000F76A700FF66E010EF7220900F5501200C3
:100170000000F76A820FF66E010EF7220900F550B3
:1001800012002000F76A940FF66E010EF7220900A4
:10019000F550120009022900010100803209040013
:1001A00000020300000009211101000122200007C4
:1001B00005810380000A0705010308000A00F76AA9
:1001C000CE0FF66E010EF7220900F5501200010065
:1001D000F76AE00FF66E010EF7220900F5501200E3
:1001E0001201000200000040111111110001010272
:1001F0000001F76A020FF66E020EF7220900F550B1
:10020000120004030904080374006D0063003A033C
:1002100074006D0063006F006E0065002000280010
:100220004300290020005500730062004800490087
:100230004400200055007900670075006C006100E3
:100240006D006100730069002000F2CF0EF0F29E95
:10025000F76A640FF66E020EF7220900F5500EBE23
:10026000F28E12000D0A2055534220436F6E6E65C8
:100270006374696E6700F2CF0EF0F29EF76A900F1A
:10028000F66E020EF7220900F5500EBEF28E120035
:100290000D0A20576169745F666F725F656E756DD8
:1002A00065726174696F6E00F2CF0EF0F29EF76AAC
:1002B000C20FF66E020EF7220900F5500EBEF28E46
:1002C00012000D0A2055534220436F6E6E65637411
:1002D00065640000F2CF0EF0F29EF76AEE0FF66E44
:1002E000020EF7220900F5500EBEF28E12000D0A22
:1002F00020504320434F4E4E454354454400F2CFD7
:100300000EF0F29EF76A180FF66E030EF722090040
:10031000F5500EBEF28E12000D0A205043204449C3
:1003200053434F4E4E45435445440000F2CF0EF028
:10033000F29EF76A460FF66E030EF7220900F5509B
:100340000EBEF28E12000D0A204144433A20254C85
:1003500064200000F2CF0EF0F29EF76A6E0FF66E88
:10036000030EF7220900F5500EBEF28E12000D0AA0
:100370002050574D2053544152540000F2CF0EF0FC
:10038000F29EF76A960FF66E030EF7220900F550FB
:100390000EBEF28E12000D0A2050574D2053544FBE
:1003A0005000F2CF0EF0F29EF76ABC0FF66E030E0D
:1003B000F7220900F5500EBEF28E12000D0A2050F1
:1003C000574D3A20254C642020445554593A202555
:1003D0004C6400006D9269946894F9EF06F06A6AC3
:1003E000689202EF07F0566A56520AE1036A5650C5
:1003F000270FE96E000E0320EA6EEF6A562AF4D743
:100400001A6A010E1B6E196A000C010E5F6E5F50B6
:100410000F080EE3700E5F24016E0F0E036ED8B04E
:10042000032A01C0E9FF03C0EAFFEF6A5F2AEFD7A2
:100430001E6A1D6A000C400E0401016F050E036F59
:10044000026B880E006F046B050E076F400E066F7F
:100450000001000C6A6A686A9F0E6B6E390E696E45
:100460006E6AC1DFD2DF160E706E68A602D0689683
:10047000FCD76D98E0DF030E1F6E08EF07F069846C
:1004800068986D820EEF07F0689C14EF07F070A07B
:1004900002D0D1DF7090689A1AEF07F05AC020F0AE
:1004A000000CFF0E206E000C586A26523EE0585099
:1004B0003F083BE31C50FC0F2BE2040F9FEF02F0C0
:1004C000036A2550F2CF5AF0F29E5CDE5ABEF28EDD
:1004D000596E1ED0036A2550F2CF5AF0F29E28DEE4
:1004E0005ABEF28E596E14D0036A2550F2CF5AF0DC
:1004F000F29E7FDE5ABEF28E596E0AD0036A2550F4
:10050000F2CF5AF0F29E64DE5ABEF28E596E00D0DF
:10051000252A26065850582A036A400FE96E050E10
:100520000320EA6E59C0EFFFC0D7265204E15850AD
:10053000400801E0196A58C05AF0B0DF000CE82406
:10054000F76AF736590FF66E050EF7220A00F550D6
:10055000FA6E0800F550F96EC004D404E804FC04F7
:10056000256A1C6A05010351010A000109E0030A1A
:100570000CE0010A0DE0220A22E0030A32E058D022
:10058000120E266E030E1C6E55D0290E266E52D00A
:10059000020E1C6E036A05010251210FE96E000E66
:1005A0000320EA6EEFCF25F0036A2550F2CF58F012
:1005B000F29E00011EDE58BEF28E266E3BD0120E59
:1005C000256E253C01D00BD0036A2550F2CF58F0A0
:1005D000F29ED8DD58BEF28E266E2CD002D061DF9E
:1005E00035D0D89005010435036AF2CF58F0F29E59
:1005F0000001B6DD0900F5CF03F058BEF28E256E7E
:10060000253C01D013D0010E1C6ED8900501043595
:10061000036AF2CF58F0F29E0001ABDD0900F5CF7E
:1006200003F058BEF28E266E05D002D03ADF0ED00F
:1006300038DF0CD00501075305E12650065D02E2C4
:1006400006C526F0010E196E00012EDF000C575270
:1006500004E1040E1F6ED9DEC1D0050E1F6E5A6E66
:10066000800E596E010E586E58500F08D8A0B6D0A3
:100670005B6A036A5850F2CF5FF0F29E10DD5FBEF6
:10068000F28E000A51E0040E5B6ED8905834036A73
:10069000F2CF5FF0F29E2BDD0900F5CF03F05FBED5
:1006A000F28E5C6E03C05DF05850080DF350010FE0
:1006B000016E040E036ED8B0032A01C0E9FF03C027
:1006C000EAFF5CC0EFFF5850080DF350020F016EB7
:1006D000040E036ED8B0032A01C0E9FF03C0EAFF8D
:1006E0005AC0ECFFED5259C0EFFFD8905834036A5E
:1006F000F2CF5FF0F29EFBDC0900F5CF03F05FBEA6
:10070000F28E592603505A22880E5E6E5DB05E80CE
:100710005DB25E825850080DF3CF01F0040E01C0A7
:10072000E9FFEA6E5EC0EFFF036A5850F2CF5FF058
:10073000F29EB5DC5FBEF28E000A31E05B8258505B
:10074000080DF350060F016E040E036ED8B0032A95
:1007500001C0E9FF03C0EAFF5AC0ECFFED5259C0E7
:10076000EFFFD8905834036AF2CF5FF0F29EA7DC17
:100770000900F5CF03F05FBEF28E592603505A22CE
:100780005850080DF350040F016E040E036ED8B0DC
:10079000032A01C0E9FF03C0EAFF400EEF6E5B5081
:1007A000060802E10E0E5B6E036A5850F2CF5FF04E
:1007B000F29E75DC5FBEF28E020801E05B88700E6F
:1007C0005824016E0F0E036ED8B0032A01C0E9FF52
:1007D00003C0EAFF5BC0EFFF582A46D73AEF04F0A8
:1007E0000501015100010DE0010A14E0020A1EE0BA
:1007F000060A27E0030A2CE00E0A2CE0010A30E08A
:100800003DD01BC040F50501416B020E5A6E000140
:1008100045DE36D00501022D06D0010E1B165A6AA0
:1008200000013CDE02D000013CDE2AD00501022D91
:1008300005D01B825A6A000131DE02D0000131DE90
:100840001FD0020E196E02C524F05A6A27DE18D096
:1008500087DE16D01AC040F5010E5A6E1FDE10D08A
:1008600005010251010808E302C51AF002C557F05C
:100870000001EDD65A6A12DE000102D012DE00D06D
:1008800072EF05F01AC057F005010151000107E0B1
:100890000A0A0DE0010A2DE00D0A3DE03ED00501F7
:1008A000406B416B020E5A6E0001F8DD38D0575292
:1008B0001EE0010E575C036AF2CF59F0F29E7FDC16
:1008C00059BEF28E016E0501045DD8A002D0000170
:1008D0000ED0036A0451270FE96E000E0320EA6E62
:1008E000EFCF40F5010E5A6E0001D8DD01D0D9DD01
:1008F00016D057520EE0036A05010451270FE96E26
:10090000000E0320EA6E02C5EFFF5A6A0001C6DD41
:1009100001D0C7DD04D024DE02D0C3DD00D072EFE9
:1009200005F0589057BE5880579E58A011D0036AC2
:100930005750F2CF59F0F29E4FEC00F059BEF28EB4
:10094000000A02E1000E01D0010E016E11D010D09C
:10095000036A5750F2CF59F0F29E4FEC00F059BEA7
:10096000F28E000A02E1000E01D0010E016E00D0ED
:100970002AEF05F0589057BE5880579E58A010D0C7
:100980005750080DF350040F016E040E036ED8B0DB
:10099000032A01C0E9FF03C0EAFF880EEF6E09D009
:1009A0005750080DF3CF01F0040E01C0E9FFEA6EC5
:1009B000EF6A39EF05F0589057BE5880579E58A0FF
:1009C00010D05750080DF350040F016E040E036E43
:1009D000D8B0032A01C0E9FF03C0EAFF840EEF6E1E
:1009E0000AD05750080DF3CF01F0040E01C0E9FF03
:1009F000EA6E840EEF6E3FEF05F0589057BE5880B8
:100A0000579E58A010D05750080DF350040F016E98
:100A1000040E036ED8B0032A01C0E9FF03C0EAFF49
:100A2000EFCF59F00AD05750080DF3CF01F0040E64
:100A300001C0E9FFEA6EEFCF59F059AE02D059B4C8
:100A400002D0000E01D0010E016E49EF05F004C581
:100A500057F067D7015229E005010151010A000151
:100A600005E0020A09E0030A0DE01DD004C557F0B5
:100A700081D75A6A13DD19D004C557F09CD75A6A3A
:100A80000DDD13D00501406B416B04C557F000012B
:100A9000B4D7015204E0010E0501406F0001020EBF
:100AA0005A6EFCDC02D0FDDC00D072EF05F00501CF
:100AB000015100D00001F5DC00D072EF05F0196A99
:100AC000050100517F0B000107E0010A06E0030A5F
:100AD00005E0230A04E004D083D6D4D6B8D7E7D7FC
:100AE000E0DC00D099EF06F05750080DF3CF01F08D
:100AF000040E01C0E9FFEA6EEFCF59F0585002082A
:100B000006E159AC02D0586A02D0010E586E585016
:100B1000030812E1840E596E5750080DF350040F6C
:100B2000016E040E036ED8B0032A01C0E9FF03C0B2
:100B3000EAFF840EEF6E09D0582C03D0C80E596E10
:100B400004D0585202E1880E596E036A010E026EFB
:100B50005750006E05E0D89002360336002EFBD7C2
:100B60000250FF0A006EFF0E031A00501D160350BC
:100B70001E16D8905734036AF2CF5CF0F29E77ECE1
:100B800000F00900F5CF03F05CBEF28E5A6E03C090
:100B90005BF05750080DF350010F016E040E036E09
:100BA000D8B0032A01C0E9FF03C0EAFF5AC0EFFF33
:100BB0005BB059805BB259825750080DF3CF01F0FA
:100BC000040E01C0E9FFEA6E59C0EFFF000C575058
:100BD000080DF350040F016E040E036ED8B0032A03
:100BE00001C0E9FF03C0EAFFEFCF5BF05BBE5BD063
:100BF0005750080DF350050F016E040E036ED8B068
:100C0000032A01C0E9FF03C0EAFF58C0EFFF5A50B2
:100C1000020816E15750080DF350040F016E040E40
:100C2000036ED8B0032A01C0E9FF03C0EAFFEFCF8B
:100C30005BF05BAC02D05A6A02D0010E5A6E13D040
:100C40005A50040810E15750080DF3CF01F0040E7C
:100C500001C0E9FFEA6EEFCF5BF05BAC03D0010EA1
:100C60005A6E01D05A6A5A2C03D0C80E5B6E04D05B
:100C70005A5202E1880E5B6E59B05B8059B25B82BA
:100C80005750080DF350040F016E040E036ED8B0D8
:100C9000032A01C0E9FF03C0EAFF5BC0EFFF010EBA
:100CA000016E03D000D0000E016E000C575203E11C
:100CB0001BEC02F00FD0036A010E026E5750006E5B
:100CC00005E0D89002360336002EFBD702501D12E5
:100CD00003501E12000C58C06EFF585203E0040E61
:100CE0001F6E02D0020E1F6E7BEF06F01A6A196AA1
:100CF00024C058F0F0D788EF06F0575209E1192CBC
:100D000003D054EC02F004D01950020801E1EED7F0
:100D1000000C6C30566E563256321F0E56166C5200
:100D20003BE1040100513C0B34081BE1046B000162
:100D3000C6D6203C05D0576A030E586ED5DE0ED0BD
:100D4000576A020E586ED0DE2050FE0807E0576A40
:100D5000596A20C058F0040E5A6E39DF6D9819D0C8
:100D6000040100513C0B040815E1576A00019EDFA5
:100D7000576A020E586EB8DE2050FE080AE0203C8A
:100D800001D007D0576A596A20C058F0010E5A6E38
:100D90001EDF040120D000016C50040812E1FF0E98
:100DA000206E576AAADF203C01D008D0576A596AE2
:100DB00020C058F0020E5A6E0ADF02D01BEC02F07F
:100DC00009D06CB404D056C057F070DF03D056C0C1
:100DD00057F093DF040100011FEF07F01F5201E1FC
:100DE0002FD068522DE068A404D069A402D0EAEFA5
:100DF00001F06DA201D024D068A204D069A202D073
:100E0000EFEF01F068A004D069A002D02AEF02F051
:100E100068A804D069A802D03FEF02F068AC04D003
:100E200069AC02D044EF02F068AA04D069AA02D0EB
:100E300047EF02F068A604D069A602D06AD7689688
:100E4000A19A2CEF00F0F29CF29EF2BEFDD7010EAB
:100E5000926E000E946E956EC150C00B0D09C16E5E
:100E6000C080C082C084C08EC2808B928B940C0ED6
:100E7000BD6EB76A0FEF09F06D6A696A080E6F6E92
:100E800094503009946E1F6A186AF2BE188EF29E52
:100E9000F3EC01F018BEF28E1E6A1D6A73EF07F0C4
:100EA000186AF2BE188EF29EF3EC01F018BEF28EB4
:100EB0006D6A140E6F6E696A6D86010E1F6E64EFA7
:100EC00007F06DB601D0ECD71F2C0BD06DBA09D04E
:100ED000686A696AA08AC00EF212110E696E020E6B
:100EE0001F6E000CC9D7EDDF1F500208FCE110EFA8
:100EF00009F01A5202E10400FCD71FEF09F0475035
:100F0000080DF350020F016E040E036ED8B0032AD1
:100F100001C0E9FF03C0EAFFECCF03F0ED52EFCFD1
:100F20004CF003C04DF04750080DF350010F016E17
:100F3000040E036ED8B0032A01C0E9FF03C0EAFF24
:100F4000EF50036A4F6E03C050F04750080DF3CFC7
:100F500001F0040E01C0E9FFEA6EEFCF4EF04EB093
:100F600050804EB2508250504B5C08E303E14A502F
:100F70004F5C04E250C04BF04FC04AF0506A4F6AD9
:100F800050504B5C1AE303E14A504F5C16E24CC0F0
:100F9000E9FF4DC0EAFFEFCF53F049C0EAFF48C078
:100FA000E9FF53C0EFFF482AD8B4492A4C2AD8B4E5
:100FB0004D2A4F2AD8B4502AE3D74AC001F04BC07B
:100FC00002F0EEEF07F042C047F044C049F043C0E2
:100FD00048F046C04BF045C04AF091D702C046F0F9
:100FE00001C045F0186AF2BE188EF29E42C057F05A
:100FF000020E586E79DD18BEF28E45C001F046C073
:1010000002F03DEF09F0EACF4CF0E9CF4BF045AEEE
:1010100008D04B8E4BA84B2A441E451E442AD8B4F8
:10102000452A4538F009476E4726E20F486E320FD1
:101030004A6E45500F0B482648264A26E90F496E4E
:101040004926492644380F0B49264A2649364A364E
:101050004A1E4A3644500F0B4A264736070E466E44
:101060000A0E49064A26FDE348064926FDE34706DF
:101070004826FDE346064726FDE3EA6A460EE96E8A
:10108000070E4B144B9CE9064B1407E14BB8E92AB9
:101090004BB803D0200E006E1CD0E9264A0EE95C46
:1010A000D8B44B8CEF50006E08E14BBC06D04BB867
:1010B00014D04BB602D0200E0BD04BAE06D02D0E66
:1010C000006EED504B9C4B9E04D04B864B98300EDF
:1010D000002600509EA8FED7AD6EEE504BACDED77A
:1010E000000C4450080DF350040F016E040E036E03
:1010F000D8B0032A01C0E9FF03C0EAFFEFCF4CF0EC
:101100004CBE45D04450080DF350060F016E040E3E
:10111000036ED8B0032A01C0E9FF03C0EAFFECCF99
:1011200003F0ED52EFCF4DF003C04EF04B6A4A6A28
:101130004B50485C1AE303E147504A5C16E245C055
:10114000E9FF46C0EAFFEFCF51F04EC0EAFF4DC0C5
:10115000E9FF51C0EFFF4D2AD8B44E2A452AD8B432
:10116000462A4A2AD8B44B2AE3D7186AF2BE188E08
:10117000F29E44C057F048C059F047C058F049C0EB
:101180005AF025DD18BEF28E015003D000D0000EBB
:10119000016EDAEF08F04250306E43C031F0010EBC
:1011A000446E466A300E456E486A800E476E020EE7
:1011B000496E97D73EEF0AF0F86AD09E0D8EEA6A24
:1011C000E96AB886080EAF6E020EB06EA60EAC6E5F
:1011D000900EAB6EC150C00B0F09C16E070EB46EFE
:1011E0001F6A216A040E226E0C0E236E266A386A6C
:1011F000396AFF0E3A6E3B6A800E3C6E3D6A3E6A6B
:101200003F6A426A425025EC01F0422A006E0050CB
:101210009EA8FED7AD6E110E425CF4E114D662D6E4
:1012200050DE426A42503BEC01F0422A006E005010
:101230009EA8FED7AD6E170E425CF4E15AD61A5244
:101240000DE0426A425054EC01F0422A006E005018
:101250009EA8FED7AD6E100E425CF4E18A901A5241
:10126000D8B40DD11DA20AD1010E426E446A280ED7
:10127000436E466A080E456EA6D62850430A10E013
:10128000060A1CE0040A28E0110A59E0030AD8B44F
:1012900073D0170AD8B482D0020AD8B4B6D0EDD031
:1012A000426A42506AEC01F0422A006E00509EA849
:1012B000FED7AD6E0F0E425CF4E1E0D0426A4250C0
:1012C0007FEC01F0422A006E00509EA8FED7AD6E62
:1012D000120E425CF4E1D2D03F6A29C03EF03E34A7
:1012E000006E3F34016E00360136FC0E0016C2500F
:1012F000C30B0010C26EC282C2B2FED7C3CF38F099
:10130000C4CF39F0426A425096EC01F0422A006E96
:1013100000509EA8FED7AD6E080E425CF4E1100EA0
:10132000E96E39C045F038C044F06DDE200E9EA84D
:10133000FED7AD6E39C043F038C042F02CD73B6ABF
:10134000FF0E3A6E3D6A800E3C6E3CC041F0000ECE
:101350000609CA6E3AC0CBFF41C0BEFF426A425086
:10136000AAEC01F0422A006E00509EA8FED7AD6E96
:101370000C0E425CF4E182D0BE6ABD50CF0BBD6E54
:10138000426A4250BEEC01F0422A006E00509EA814
:10139000FED7AD6E0B0E425CF4E170D03D6A29C001
:1013A0003CF03D50000803E23D6AFF0E3C6E3CC03D
:1013B00041F041C0BEFF426A4250D1EC01F0422AE6
:1013C000006E00509EA8FED7AD6E080E425CF4E1A0
:1013D000100EE96E3BC045F03AC044F014DE0B0E2F
:1013E000436E4350D1EC01F0432A006E00509EA89A
:1013F000FED7AD6E130E435CF4E1100EE96E3DC0F6
:1014000045F03CC044F0FFDD39D03B6A29C03AF0DA
:101410003B50000803E23B6AFF0E3A6E000E0609DD
:10142000CA6E3AC0CBFF426A4250D1EC01F0422A68
:10143000006E00509EA8FED7AD6E080E425CF4E12F
:10144000100EE96E3BC045F03AC044F0DCDD0B0EF7
:10145000436E4350D1EC01F0432A006E00509EA829
:10146000FED7AD6E130E435CF4E1100EE96E3DC085
:1014700045F03CC044F0C7DD01D000D0F0D6EFD637
:02148000030067
:020000040030CA
:0E000000240E3E1E000381000FC00FE00F40D3
:00000001FF
;PIC18F4550
