:020000040000FA
:040000005AEF0DF0B6
:08000800056ED8CF06F0E0CF31
:1000100007F00001E9CF0DF0EACF08F0E1CF09F0D9
:10002000E2CF0AF0D9CF0BF0DACF0CF0F3CF14F017
:10003000F4CF15F0FACF16F000C00FF001C010F0A9
:1000400002C011F003C012F004C013F0A0AA2CEFFC
:1000500000F0A1BA5EEF07F00FC000F010C001F091
:1000600011C002F012C003F013C004F00E8E0DC0D8
:10007000E9FF08C0EAFF09C0E1FF0AC0E2FF0BC0C8
:10008000D9FF0CC0DAFF14C0F3FF15C0F4FF16C08F
:10009000FAFF055007C0E0FF06C0D8FF1000F76A5E
:1000A000AE0FF66E000EF7220900F55012000401A3
:1000B0000000000000000000000000000000F76ADF
:1000C000CE0FF66E000EF7220900F5501200400028
:1000D00080000000000000000000000000000000A0
:1000E00000000000000000000000000000000DAE55
:1000F00003D0F2CF0EF0F29EF76A100FF66E010EEB
:10010000F7220900F5500DAE02D00EBEF28E12009D
:100110004000080000000000000000000000000097
:1001200000000000000000000000000000000000CF
:10013000F76A400FF66E010EF7220900F550120023
:100140000600FF0901A10119002920150025FF75EE
:10015000089580810219002920750895809102C0B8
:10016000F76A700FF66E010EF7220900F5501200C3
:100170000000F76A820FF66E010EF7220900F550B3
:1001800012002000F76A940FF66E010EF7220900A4
:10019000F550120009022900010100803209040013
:1001A00000020300000009211101000122200007C4
:1001B00005810380000A0705010308000A00F76AA9
:1001C000CE0FF66E010EF7220900F5501200010065
:1001D000F76AE00FF66E010EF7220900F5501200E3
:1001E0001201000200000040111111110001010272
:1001F0000001F76A020FF66E020EF7220900F550B1
:10020000120004030904080374006D0063003A033C
:1002100074006D0063006F006E0065002000280010
:100220004300290020005500730062004800490087
:100230004400200055007900670075006C006100E3
:100240006D006100730069002000F2CF0EF0F29E95
:10025000F76A640FF66E020EF7220900F5500EBE23
:10026000F28E12000D0A2055534220446174612021
:1002700053656E743A257300F2CF0EF0F29EF76A62
:10028000920FF66E020EF7220900F5500EBEF28EA6
:1002900012000D0A2055534220436F6E6E65637441
:1002A000696E6700F2CF0EF0F29EF76ABE0FF66E2F
:1002B000020EF7220900F5500EBEF28E12000D0A52
:1002C00020576169745F666F725F656E756D6572E8
:1002D0006174696F6E00F2CF0EF0F29EF76AF00F54
:1002E000F66E020EF7220900F5500EBEF28E1200D5
:1002F0000D0A2055534220436F6E6E65637465642A
:100300000000F2CF0EF0F29EF76A1C0FF66E030E9D
:10031000F7220900F5500EBEF28E12000D0A205091
:100320004320434F4E4E454354454400F2CF0EF018
:10033000F29EF76A460FF66E030EF7220900F5509B
:100340000EBEF28E12000D0A205043204449534342
:100350004F4E4E45435445440000F2CF0EF0F29EFE
:10036000F76A740FF66E030EF7220900F5500EBE01
:10037000F28E12000D0A2050574D20535441525412
:100380000000F2CF0EF0F29EF76A9C0FF66E030E9D
:10039000F7220900F5500EBEF28E12000D0A205011
:1003A000574D2053544F5000F2CF0EF0F29EF76A93
:1003B000C20FF66E030EF7220900F5500EBEF28E44
:1003C00012000D0A2050574D3A20254C642020443D
:1003D0005554593A20254C6400006D9269946894F4
:1003E00069EF07F06A6A689272EF07F00101236B08
:1003F00023530AE1036A2351270FE96E000E0320FD
:10040000EA6EEF6A232BF4D71A6A010E1B6E196A83
:100410000001000C010E01012C6F2C510F080EE39E
:10042000700E2C25016E0F0E036ED8B0032A01C08A
:10043000E9FF03C0EAFFEF6A2C2BEFD71E6A1D6AA3
:100440000001000C400E0401016F050E036F026BEA
:10045000880E006F046B050E076F400E066F0001DB
:10046000000C6A6A686A9F0E6B6E390E696E6E6A5E
:10047000BDDFD0DF160E706E68A602D06896FCD77E
:100480006D98E0DF030E1F6E78EF07F069846898BF
:100490006D827EEF07F0689C84EF07F070A002D0B9
:1004A000D1DF7090689A8AEF07F027C120F0000C26
:1004B000FF0E206E000C0101256B265244E02551F1
:1004C0003F0841E31C50FC0F31E2040F0001AEEF86
:1004D00002F0036A2550F2CF27F1F29E53DE0101AC
:1004E00027BFF28E266F22D0036A2550F2CF27F164
:1004F000F29E1EDE010127BFF28E266F17D0036A1F
:100500002550F2CF27F1F29E74DE010127BFF28E53
:10051000266F0CD0036A2550F2CF27F1F29E58DEE9
:10052000010127BFF28E266F01D00101252A260680
:100530002551252B036A400FE96E050E0320EA6E54
:1005400026C1EFFFBAD7265204E12551400801E049
:10055000196A25C127F10001A8DF000CE824F76A19
:10056000F736770FF66E050EF7220A00F550FA6E91
:100570000800F550F96ED204E804FE041405256A5B
:100580001C6A05010351010A000109E0030A0CE09D
:10059000010A0DE0220A24E0030A36E061D0120EBF
:1005A000266E030E1C6E5ED0290E266E5BD0020EE8
:1005B0001C6E036A05010251210FE96E000E032033
:1005C000EA6EEFCF25F0036A2550F2CF25F1F29EB7
:1005D00000010FDE010125BFF28E266E000142D020
:1005E000120E256E253C01D00DD0036A2550F2CFA6
:1005F00025F1F29EC7DD010125BFF28E266E0001B6
:1006000031D002D055DF3AD0D89005010435036AC5
:10061000F2CF25F1F29E0001A3DD0900F5CF03F032
:10062000010125BFF28E256E253C01D016D0010EAA
:100630001C6ED89005010435036AF2CF25F1F29EB5
:10064000000197DD0900F5CF03F0010125BFF28E0F
:10065000266E000107D004D00101000129DF0ED071
:1006600027DF0CD00501075305E12650065D02E2A5
:1006700006C526F0010E196E00011DDF000C0101F8
:10068000245306E1040E1F6E0001C4DECED001012A
:10069000050E1F6E276F800E266F010E256F2551E8
:1006A0000F08D8A0C2D0286B036A2551F2CF2CF1D5
:1006B000F29E0001F4DC01012CBFF28E000A55E02D
:1006C000040E286FD8902535036AF2CF2CF1F29EE4
:1006D00000010DDD0900F5CF03F001012CBFF28E02
:1006E000296F03C02AF12551080DF350010F016E47
:1006F000040E036ED8B0032A01C0E9FF03C0EAFF6D
:1007000029C1EFFF2551080DF350020F016E040EB1
:10071000036ED8B0032A01C0E9FF03C0EAFF27C176
:10072000ECFFED5226C1EFFFD8902535036AF2CFDA
:100730002CF1F29E0001DBDC0900F5CF03F0010192
:100740002CBFF28E262703502723880E2B6F2AB149
:100750002B812AB32B832551080DF3CF01F0040E12
:1007600001C0E9FFEA6E2BC1EFFF036A2551F2CF0A
:100770002CF1F29E000193DC01012CBFF28E000AE5
:1007800033E028832551080DF350060F016E040E47
:10079000036ED8B0032A01C0E9FF03C0EAFF27C1F6
:1007A000ECFFED5226C1EFFFD8902535036AF2CF5A
:1007B0002CF1F29E000183DC0900F5CF03F001016A
:1007C0002CBFF28E2627035027232551080DF35006
:1007D000040F016E040E036ED8B0032A01C0E9FFB6
:1007E00003C0EAFF400EEF6E2851060802E10E0E2C
:1007F000286F036A2551F2CF2CF1F29E00014FDCE5
:1008000001012CBFF28E020801E02889700E252517
:10081000016E0F0E036ED8B0032A01C0E9FF03C0BA
:10082000EAFF28C1EFFF252B3AD7000169EF04F05A
:100830000501015100010DE0010A15E0020A20E066
:10084000060A2AE0030A31E00E0A31E0010A37E025
:1008500046D01BC040F50501416B020E0101276F18
:10086000000123DE3ED00501022D07D0010E1B162C
:100870000101276B000119DE02D0000119DE31D021
:100880000501022D06D01B820101276B00010DDE40
:1008900002D000010DDE25D0020E196E02C524F033
:1008A0000101276B000101DE1CD069DE1AD01AC0DD
:1008B00040F5010E0101276F0001F7DD12D005019F
:1008C000025101080AE302C51AF002C524F1000131
:1008D000D6D60101276B0001E8DD000102D0E8DD7A
:1008E00000D0BDEF05F01AC024F10501015100014F
:1008F00007E00A0A0EE0010A33E00D0A46E047D09D
:100900000501406B416B020E0101276F0001CDDD37
:1009100040D00101245321E0010E245D036AF2CF8F
:1009200026F1F29E00014BDC010126BFF28E016E22
:100930000501045DD8A002D001010FD0036A045163
:10094000270FE96E000E0320EA6EEFCF40F5010E8F
:100950000101276F0001A9DD02D00001A9DD19D036
:10096000010124530FE0036A05010451270FE96ECA
:10097000000E0320EA6E02C5EFFF0101276B0001A4
:1009800094DD02D0000194DD04D0F9DD02D090DDC9
:1009900000D0BDEF05F00101259124BF2581249FE2
:1009A00025A113D0036A2451F2CF26F1F29E000153
:1009B0004FEC00F0010126BFF28E000A02E1000EAA
:1009C00001D0010E016E13D012D0036A2451F2CF70
:1009D00026F1F29E00014FEC00F0010126BFF28EDD
:1009E000000A02E1000E01D0010E016E00D00001EC
:1009F00070EF05F00101259124BF2581249F25A1D9
:100A000010D02451080DF350040F016E040E036E34
:100A1000D8B0032A01C0E9FF03C0EAFF880EEF6ED9
:100A200009D02451080DF3CF01F0040E01C0E9FFF5
:100A3000EA6EEF6A00017FEF05F00101259124BF06
:100A40002581249F25A110D02451080DF350040FB7
:100A5000016E040E036ED8B0032A01C0E9FF03C083
:100A6000EAFF840EEF6E0AD02451080DF3CF01F097
:100A7000040E01C0E9FFEA6E840EEF6E000187EFFD
:100A800005F00101259124BF2581249F25A110D0C7
:100A90002451080DF350040F016E040E036ED8B0FC
:100AA000032A01C0E9FF03C0EAFFEFCF26F10AD015
:100AB0002451080DF3CF01F0040E01C0E9FFEA6EE6
:100AC000EFCF26F126AF02D026B502D0000E01D01E
:100AD000010E016E000193EF05F004C524F15BD710
:100AE00001522EE005010151010A000105E0020A50
:100AF0000BE0030A11E022D004C524F17BD70101E9
:100B0000276B0001D2DC1CD004C524F196D701016B
:100B1000276B0001CADC14D00501406B416B04C592
:100B200024F10001AED7015203E0010E0501406F30
:100B3000020E0101276F0001B8DC02D0B9DC00D041
:100B4000BDEF05F00501015100D00001B1DC00D07E
:100B5000BDEF05F0196A050100517F0B000107E0A8
:100B6000010A06E0030A05E0230A04E004D060D687
:100B7000BAD6B3D7E7D79CDC00D0F7EF06F0010177
:100B80002451080DF3CF01F0040E01C0E9FFEA6E15
:100B9000EFCF26F12551020806E126AD02D0256BE4
:100BA00002D0010E256F2551030812E1840E266F35
:100BB0002451080DF350040F016E040E036ED8B0DB
:100BC000032A01C0E9FF03C0EAFF840EEF6E09D0DB
:100BD000252D03D0C80E266F04D0255302E1880EC0
:100BE000266F036A010E026E2451006E05E0D89054
:100BF00002360336002EFBD70250FF0A006EFF0EAE
:100C0000031A00501D1603501E16D8902435036A8F
:100C1000F2CF29F1F29E000177EC00F00900F5CF48
:100C200003F0010129BFF28E276F03C028F1245180
:100C3000080DF350010F016E040E036ED8B0032AA5
:100C400001C0E9FF03C0EAFF27C1EFFF28B12681F9
:100C500028B326832451080DF3CF01F0040E01C000
:100C6000E9FFEA6E26C1EFFF0001000C01012451EB
:100C7000080DF350040F016E040E036ED8B0032A62
:100C800001C0E9FF03C0EAFFEFCF28F128BF5BD026
:100C90002451080DF350050F016E040E036ED8B0F9
:100CA000032A01C0E9FF03C0EAFF25C1EFFF275176
:100CB000020816E12451080DF350040F016E040ED2
:100CC000036ED8B0032A01C0E9FF03C0EAFFEFCFEB
:100CD00028F128AD02D0276B02D0010E276F13D068
:100CE0002751040810E12451080DF3CF01F0040E40
:100CF00001C0E9FFEA6EEFCF28F128AD03D0010E65
:100D0000276F01D0276B272D03D0C80E286F04D082
:100D1000275302E1880E286F26B1288126B3288345
:100D20002451080DF350040F016E040E036ED8B069
:100D3000032A01C0E9FF03C0EAFF28C1EFFF010E4B
:100D4000016E03D000D0000E016E0001000C010105
:100D5000245305E1000122EC02F010D00101036AE6
:100D6000010E026E2451006E05E0D8900236033663
:100D7000002EFBD702501D1203501E120001000C62
:100D800025C16EFF0101255303E0040E1F6E02D042
:100D9000020E1F6E0001D2EF06F01A6A196A24C013
:100DA00025F1EED7E3EF06F0010124530DE1192CF4
:100DB00005D000015BEC02F006D0010119500208D9
:100DC00003E10001EAD701010001000C6C300101D0
:100DD000236F233323331F0E23176C5246E1040184
:100DE00000513C0B340821E1046B0001B3D6203CD8
:100DF00007D00101246B030E256F0001C0DE12D065
:100E00000101246B020E256F0001B9DE2050FE089F
:100E100009E00101246B266B20C025F1040E276F29
:100E2000000124DF6D981ED0040100513C0B040822
:100E30001AE10101246B00018ADF0101246B020E1B
:100E4000256F00019CDE2050FE080CE0203C01D004
:100E500009D00101246B266B20C025F1010E276FFC
:100E6000000104DF040127D001016C50040816E1E1
:100E7000FF0E206E246B000197DF203C01D00AD0CA
:100E80000101246B266B20C025F1020E276F0001A3
:100E9000EDDE02D022EC02F00DD001016CB406D0E0
:100EA00023C124F1000153DF05D0010123C124F146
:100EB00000017ADF040100018FEF07F01F5201E10A
:100EC0002FD068522DE068A404D069A402D0EDEFC1
:100ED00001F06DA201D024D068A204D069A202D092
:100EE000F2EF01F068A004D069A002D031EF02F067
:100EF00068A804D069A802D046EF02F068AC04D01C
:100F000069AC02D04BEF02F068AA04D069AA02D003
:100F10004EEF02F068A604D069A602D057D76896B3
:100F2000A19A2CEF00F0F29CF29EF2BEFDD7FF0ECC
:100F3000926E936E968096829684C150C00BC16E5D
:100F4000C080C092C094C08EC2808B928B940C0ED5
:100F5000BD6EB76A9BEF0DF06D6A696A080E6F6E21
:100F6000945030090101946E1F6A186AF2BE188EFF
:100F7000F29E0001F6EC01F018BEF28E1E6A1D6AA8
:100F8000E5EF07F0186AF2BE188EF29EF6EC01F05B
:100F900018BEF28E6D6A140E6F6E696A6D86010E50
:100FA0001F6ED6EF07F06DB601D0ECD71F2C0BD01B
:100FB0006DBA09D0686A696AA08AC00EF212110E71
:100FC000696E020E1F6E000CC7D7EDDF1F500208BE
:100FD000FCE19DEF0DF01A5202E10400FCD7B2EFE4
:100FE0000DF001010E51080DF350020F016E040EB9
:100FF000036ED8B0032A01C0E9FF03C0EAFFECCFBB
:1010000003F0ED52EFCF13F103C014F10E51080DB0
:10101000F350010F016E040E036ED8B0032A01C015
:10102000E9FF03C0EAFFEF50036A166F03C017F130
:101030000E51080DF3CF01F0040E01C0E9FFEA6E76
:10104000EFCF15F115B1178115B317831751125D45
:1010500008E303E11151165D04E217C112F116C154
:1010600011F1176B166B1751125D1AE303E1115161
:10107000165D16E213C1E9FF14C1EAFFEFCF1AF1C2
:1010800010C1EAFF0FC1E9FF1AC1EFFF0F2BD8B45F
:10109000102B132BD8B4142B162BD8B4172BE3D743
:1010A00011C101F012C102F0000162EF08F009C1A4
:1010B0000EF10BC110F10AC10FF10DC112F10CC1FB
:1010C00011F18FD702C00DF101C00CF1186AF2BE08
:1010D000188EF29E09C124F1020E0101256F000154
:1010E0004EDD18BEF28E01010CC101F00DC102F0FF
:1010F0000001D7EF0DF08E0E006E0BC101F00AC19A
:1011000002F0036A015209E102C001F0026A080E0E
:10111000005E015202E1006A08D0D89001BE04D0FE
:10112000023601360006F9D7019EACEF08F0010146
:101130000935006E0036FC0E0016C250C30B0010BD
:10114000C26EC282C2B2FED7C4CF03F0C3CF0AF1CF
:10115000C4CF0BF10001CFD703C086F002C085F0E9
:1011600001C084F000C083F083C000F084C001F0AF
:1011700085C002F086C003F0000C01011651D8B4FE
:1011800071D0006E1A51D8B46DD0002604E3810EE0
:10119000002668E204D07F0E005E64E363E017C1BE
:1011A0001EF11B511E1B178F1B8F19511D03F4CFEE
:1011B00020F118511C03F4CF03F0F3CF1FF11D03EE
:1011C000F3502027F4501F23000E032219511C0353
:1011D000F3502027F4501F23000E026A032202223C
:1011E00017511D03F3501F27F4500322000E022253
:1011F00017511C03F3500326F4500222000E016A1B
:10120000012219511B03F3501F27F4500322000E33
:101210000222012218511B03F3500326F45002222C
:10122000000E012217511B03F3500226F450012235
:10123000002A01BE05D01F370336023601360006EC
:10124000000E1FAF0AD0032A02220122015005E13D
:10125000025003E1035001E1002A1EBF018E1EAFC0
:10126000019E04D0006A016A026A036A0001C1EFAC
:1012700009F001011651B608166F036A17C11AF179
:10128000178FD890173318331933033202320132D3
:101290000032162FF6D71AAF0BD0001E011E021E09
:1012A000031E002AD8B4012AD8B4022AD8B4032ACB
:1012B0000001D6EF09F0006A016A026A036A0101BF
:1012C0001E6B1F6B206B216B1D511C111B111A1102
:1012D0002CE0200E226FD8901637173718371937A1
:1012E0001E371F37203721371D51215D08E11C5162
:1012F000205D05E11B511F5D02E11A511E5D0FE3E8
:101300001A511E5F1B51D8A01B3D1F5F1C51D8A056
:101310001C3D205F1D51D8A01D3D215FD8800036A7
:10132000013602360336222FD6D7010EEA6E1E0E84
:10133000E96E0001000C08C1EAFF07C1E9FF0101E5
:1013400016C1EFFFE92AD8B4EA2AEF6A072BD8B40E
:10135000082B0001000CE95001010E6F0D51106FB8
:101360001BE00CC119F10BC118F10AC117F109C139
:1013700016F11D6B1C6B200E1B6F820E1A6F000185
:10138000FCD603C00CF102C00BF101C00AF100C091
:1013900009F10101102FE5D70CC119F10BC118F1AA
:1013A0000AC117F109C116F1000163D703C00CF19E
:1013B00002C00BF101C00AF100C009F101010CAF3C
:1013C0000DD00E070E8B091F0A1F0B1F0C1F092BB8
:1013D000D8B40A2BD8B40B2BD8B40C2B3B0E156FFA
:1013E0009A0E146FCA0E136F126B0A0E106F0D5106
:1013F000D8B40E2B0CC119F10BC118F10AC117F1A9
:1014000009C116F115C11DF114C11CF113C11BF165
:1014100012C11AF100014FDF0150EFCF09F1ECCFFB
:101420000AF1ECCF0BF1ECCF0CF1005213E101010A
:101430000D29105DD8A402D000010CD00E510DE092
:101440000F0B105D01E040E20EBF3ED00EBD05D097
:10145000200E34D0200E01010E170EAB0ED00E9BC5
:101460000D51D8A40E0700500E6F2D0E166F0001FF
:1014700062DF01010E51006E0E6B0D51105D0CE12B
:1014800000500E6F2E0E166F000155DF01010E5138
:10149000006E200E0E17000E300E0EAB0FD00E9BFE
:1014A0000D51D8A40E0700500E6F2D0E166F0001BF
:1014B00042DF01010E51006E0E6B300E002600C09F
:1014C00016F1000138DF010115C119F114C118F13D
:1014D00013C117F112C116F11D6B1C6B1B6B0A0EA9
:1014E0001A6F0001E8DE03C015F102C014F101C05B
:1014F00013F100C012F10101102F7CD70001000C84
:1015000001010951080DF350040F016E040E036E22
:10151000D8B0032A01C0E9FF03C0EAFFEFCF11F101
:1015200011BF48D00951080DF350060F016E040E8B
:10153000036ED8B0032A01C0E9FF03C0EAFFECCF75
:1015400003F0ED52EFCF12F103C013F1106B0F6BEC
:1015500010510D5D1AE303E10C510F5D16E20AC153
:10156000E9FF0BC1EAFFEFCF16F113C1EAFF12C189
:10157000E9FF16C1EFFF122BD8B4132B0A2BD8B4F6
:101580000B2B0F2BD8B4102BE3D7186AF2BE188E92
:10159000F29E09C124F10DC126F10CC125F10EC145
:1015A00027F1000136EC06F018BEF28E015004D08F
:1015B00000D00101000E016E0001CEEF0BF0010121
:1015C000086B870E076F000EE96E56C00CF155C010
:1015D0000BF154C00AF153C009F10D6B0001BBDEE1
:1015E0003B0E0101166F0001A6DE000EE96E5AC027
:1015F0000CF159C00BF158C00AF157C009F10101B3
:101600000D6B0001A8DE3B0E0101166F000193DE99
:10161000000EE96E5EC00CF15DC00BF15CC00AF11A
:101620005BC009F101010D6B000195DE3B0E01016C
:10163000166F000180DE000EE96E62C00CF161C021
:101640000BF160C00AF15FC009F101010D6B0001EF
:1016500082DE3B0E0101166F00016DDE000EE96EA9
:1016600066C00CF165C00BF164C00AF163C009F1FA
:1016700001010D6B00016FDE3B0E0101166F0001D1
:101680005ADE000EE96E6AC00CF169C00BF168C049
:101690000AF167C009F101010D6B00015CDE3B0E30
:1016A0000101166F000147DE000EE96E6EC00CF1FD
:1016B0006DC00BF16CC00AF16BC009F101010D6B3B
:1016C000000149DE3B0E0101166F000134DE000E01
:1016D000E96E72C00CF171C00BF170C00AF16FC0FD
:1016E00009F101010D6B000136DE3B0E0101166FA1
:1016F000000121DE000EE96E76C00CF175C00BF121
:1017000074C00AF173C009F101010D6B000123DE01
:101710003B0E0101166F00010EDE000EE96E7AC06D
:101720000CF179C00BF178C00AF177C009F1010121
:101730000D6B000110DE3B0E0101166F0001FBDD99
:10174000000EE96E7EC00CF17DC00BF17CC00AF189
:101750007BC009F101010D6B0001FDDD3B0E0101B4
:10176000166F0001E8DD000EE96E82C00CF181C049
:101770000BF180C00AF17FC009F101010D6B00017E
:10178000EADD010E0101096F0B6B870E0A6F0D6B0D
:10179000800E0C6F020E0E6F0001B2D60101096BB4
:1017A0000951000125EC01F00101092B006E0050E8
:1017B0009EA8FED7AD6E110E095DF2E1EA6A870EB2
:1017C000E96E000EEF1008E0EF509EA8FED7AD6E58
:1017D000E92AD8B4EA2AF5D70101ABEF0FF0EACF36
:1017E00013F1E9CF12F101010CAF08D0128F12A949
:1017F000122B0B1F0C1F0B2BD8B40C2B0C39F00920
:101800000E6F0E27E20F0F6F320F116F0C510F0B7F
:101810000F270F271127E90F106F102710270B39FB
:101820000F0B1027112710371137111F11370B51CC
:101830000F0B11270E37070E0D6F0A0E1007112719
:10184000FDE30F071027FDE30E070F27FDE30D074C
:101850000E27FDE3010EEA6E0D0EE96E070E12155E
:10186000129DE906121507E112B9E92A12B903D04F
:10187000200E006E1CD0E926110EE95CD8B4128D42
:10188000EF50006E08E112BD06D012B914D012B7A5
:1018900002D0200E0BD012AF06D02D0E006EED50F0
:1018A000129D129F04D012871299300E002600500C
:1018B0009EA8FED7AD6EEE5012ADDED70001000C33
:1018C0000101086B870E076F000EE96E56C00CF120
:1018D00055C00BF154C00AF153C009F10D6B000162
:1018E0003ADD3B0E0101166F000125DD000EE96EA9
:1018F0005AC00CF159C00BF158C00AF157C009F198
:1019000001010D6B000127DD3B0E0101166F000187
:1019100012DD000EE96E5EC00CF15DC00BF15CC023
:101920000AF15BC009F101010D6B000114DD3B0EF2
:101930000101166F0001FFDC000EE96E62C00CF1C0
:1019400061C00BF160C00AF15FC009F101010D6BCC
:10195000000101DD3B0E0101166F0001ECDC000E01
:10196000E96E66C00CF165C00BF164C00AF163C09A
:1019700009F101010D6B0001EEDC3B0E0101166F58
:101980000001D9DC000EE96E6AC00CF169C00BF1F0
:1019900068C00AF167C009F101010D6B0001DBDCD1
:1019A0003B0E0101166F0001C6DC000EE96E6EC031
:1019B0000CF16DC00BF16CC00AF16BC009F10101B3
:1019C0000D6B0001C8DC3B0E0101166F0001B3DC9A
:1019D000000EE96E72C00CF171C00BF170C00AF11B
:1019E0006FC009F101010D6B0001B5DC3B0E010177
:1019F000166F0001A0DC000EE96E76C00CF175C018
:101A00000BF174C00AF173C009F101010D6B000103
:101A1000A2DC3B0E0101166F00018DDC000EE96EA9
:101A20007AC00CF179C00BF178C00AF177C009F1E6
:101A300001010D6B00018FDC3B0E0101166F0001EF
:101A40007ADC000EE96E7EC00CF17DC00BF17CC02B
:101A50000AF17BC009F101010D6B00017CDC3B0E3A
:101A60000101166F000167DC000EE96E82C00CF107
:101A700081C00BF180C00AF17FC009F101010D6B3B
:101A8000000169DCEA6A870EE96E000EEF1008E0DB
:101A9000EF509EA8FED7AD6EE92AD8B4EA2AF5D752
:101AA0000D0E9EA8FED7AD6E0A0E9EA8FED7AD6E97
:101AB000A6EF0FF0F86AD09E0D8EEA6AE96AB88642
:101AC000080EAF6E020EB06EA60EAC6E900EAB6E30
:101AD000C150C00B0F09C16E070EB46E1F6A216A98
:101AE000040E226E0C0E236E266A386A396AFF0EC7
:101AF0003A6E3B6A800E3C6E3D6A3E6A3F6A100E4B
:101B0000406E416A446A456A010E466E0101076BE8
:101B1000086B096B095100013CEC01F00101092B34
:101B2000006E00509EA8FED7AD6E110E095DF2E169
:101B3000000193EF07F0E4EF07F0D3EC07F00101A9
:101B4000096B0951000152EC01F00101092B006EF3
:101B500000509EA8FED7AD6E170E095DF2E10001A0
:101B6000EBEF07F01A5211E00101096B0951000176
:101B70006BEC01F00101092B006E00509EA8FED70E
:101B8000AD6E100E095DF2E100018A901A52D8B4D0
:101B9000E4D11DA2E1D1010E0101096F0B6B280EEA
:101BA0000A6F0D6B080E0C6F000157EF08F02850FC
:101BB000430A14E0060A24E0040A34E0110AD8B407
:101BC000D9D0030AD8B40ED1170AD8B421D1020A49
:101BD000D8B45FD1140AD8B4B8D1BBD10101096B14
:101BE0000951000181EC01F00101092B006E005048
:101BF0009EA8FED7AD6E0F0E095DF2E1ACD10001DB
:101C00000101096B0951000196EC01F00101092B5A
:101C1000006E00509EA8FED7AD6E120E095DF2E177
:101C20009AD100010101096B000197EC08F003C093
:101C300056F002C055F001C054F000C053F0010E40
:101C40000101096F000197EC08F003C05AF002C0CF
:101C500059F001C058F000C057F0030E0101096FA0
:101C6000000197EC08F003C05EF002C05DF001C017
:101C70005CF000C05BF0040E0101096F000197ECFD
:101C800008F003C062F002C061F001C060F000C063
:101C90005FF0050E0101096F000197EC08F003C029
:101CA00066F002C065F001C064F000C063F0060E8B
:101CB0000101096F000197EC08F003C06AF002C04F
:101CC00069F001C068F000C067F0070E0101096FFC
:101CD000000197EC08F003C06EF002C06DF001C087
:101CE0006CF000C06BF0080E0101096F000197EC69
:101CF00008F003C072F002C071F001C070F000C0C3
:101D00006FF0090E0101096F000197EC08F003C0A4
:101D100076F002C075F001C074F000C073F00A0ED6
:101D20000101096F000197EC08F003C07AF002C0CE
:101D300079F001C078F000C077F00B0E0101096F57
:101D4000000197EC08F003C07EF002C07DF001C0F6
:101D50007CF000C07BF00C0E0101096F000197ECD4
:101D600008F003C082F002C081F001C080F000C022
:101D70007FF025D43CC043F0416A29C040F0402C9C
:101D800008D0415206E1000E0409CA6E3AC0CBFFEA
:101D900015D04050040808E1415206E1000E050943
:101DA000CA6E3AC0CBFF0AD04050100807E141523A
:101DB00005E1000E0609CA6E3AC0CBFF43C0BEFF64
:101DC0000101096B09510001ADEC01F00101092B82
:101DD000006E00509EA8FED7AD6E0C0E095DF2E1BC
:101DE000BAD00001BE6ABD50CF0BBD6E0101096BB8
:101DF00009510001C1EC01F00101092B006E0050F6
:101E00009EA8FED7AD6E0B0E095DF2E1A4D00001D5
:101E10003D6A29C03CF03D50000803E23D6AFF0ED8
:101E20003C6E3CC043F043C0BEFF0101096B095149
:101E30000001D4EC01F00101092B006E00509EA8B6
:101E4000FED7AD6E080E095DF2E1100EE96E3BC0E3
:101E50000CF13AC00BF10001C2DC0B0E01010A6F5C
:101E60000A510001D4EC01F001010A2B006E005070
:101E70009EA8FED7AD6E130E0A5DF2E1100EE96E5C
:101E80003DC00CF13CC00BF10001A9DC010163D0A5
:101E900000013B6A29C03AF03B50000803E23B6A6C
:101EA000FF0E3A6E402C08D0415206E1000E0409A4
:101EB000CA6E3AC0CBFF15D04050040808E1415229
:101EC00006E1000E0509CA6E3AC0CBFF0AD04050A9
:101ED000100807E1415205E1000E0609CA6E3AC03A
:101EE000CBFF0101096B09510001D4EC01F00101A4
:101EF000092B006E00509EA8FED7AD6E080E095D3E
:101F0000F2E1100EE96E3BC00CF13AC00BF100019A
:101F100066DC0B0E01010A6F0A510001D4EC01F0DE
:101F200001010A2B006E00509EA8FED7AD6E130E65
:101F30000A5DF2E1100EE96E3DC00CF13CC00BF100
:101F400000014DDC010107D00001BAD4010103D02A
:0E1F50000001010100D0000119D618D60300CF
:020000040030CA
:0E000000240E3E1E000381000FC00FE00F40D3
:00000001FF
;PIC18F4550
