:1000000015EF10F068961200046ED8CF05F0E0CF1F
:1000100006F00001E9CF0CF0EACF07F0E1CF08F0DD
:10002000E2CF09F0D9CF0AF0DACF0BF0F3CF12F01C
:10003000F4CF13F0FACF14F0F5CF15F0F6CF16F099
:10004000F7CF17F000C00EF001C00FF002C010F0A3
:1000500003C011F0A0AA30EF00F0A1BA5AEF07F0E8
:100060000EC000F00FC001F010C002F011C003F08C
:100070000CC0E9FF07C0EAFF078E08C0E1FF09C016
:10008000E2FF0AC0D9FF0BC0DAFF12C0F3FF13C0B2
:10009000F4FF14C0FAFF15C0F5FF16C0F6FF17C035
:1000A000F7FF045006C0E0FF05C0D8FF1000F76A54
:1000B000BE0FF66E000EF7220900F5501200000286
:1000C000FFFFFFFFFFFFFFFFFFFFFFFFFFFFF76ADD
:1000D000DE0FF66E000EF7220900F5501200400008
:1000E0008000000000000000000000000000000090
:1000F0000000000000000000000000000000F76A9F
:100100000E0FF66E010EF7220900F55012004000A6
:1001100008000000000000000000000000000000D7
:100120000000000000000000000000000000F76A6E
:100130003E0FF66E010EF7220900F5501200060080
:10014000FF0901A10119002920150025FF75089557
:1001500080810219002920750895809102C0F76AF4
:100160006E0FF66E010EF7220900F5501200000026
:10017000F76A800FF66E010EF7220900F5501200A3
:100180002000F76A920FF66E010EF7220900F55073
:100190001200090229000101008032090400000256
:1001A0000300000009211101000122200007058140
:1001B0000380000A0705010308000A00F76ACC0F54
:1001C000F66E010EF7220900F55012000100F76AE1
:1001D000DE0FF66E010EF7220900F5501200120034
:1001E000F76AF00FF66E010EF7220900F5501200C3
:1001F0001201000200000040111111110001010262
:100200000001F76A120FF66E020EF7220900F55090
:10021000120004030904080374006D0063003A032C
:1002200074006D0063006F006E0065002000280000
:100230004300290020005500730062004800490077
:100240004400200055007900670075006C006100D3
:100250006D0061007300690020006D92699468A4CC
:1002600002D06894FCD766EF07F0400E0401016FDE
:10027000040E036F100E026F880E006F046B040EE5
:10028000076F500E066F0001120070A002D0EDDF64
:100290007090689A6FEF07F06A6A689275EF07F0DE
:1002A00001013C913BBF3C813B9F3B51100803E265
:1002B000000E016E1AD03CA10DD0036A3B51000123
:1002C000F6DEFF0802E1000E01D0010E016E010111
:1002D0000CD00BD0036A3B510001E9DEFF0802E1BC
:1002E000000E01D0010E016E01010001120001019A
:1002F0003B513D03F3CF01F0F4CF00F03E03F35048
:1003000000263C513D03F3500020026E0001120014
:10031000036A01013A51700FE96E0F0E0320EA6E75
:10032000EF6A3AC13BF10001BBDF015228E0010155
:100330003C6B3AC13BF13E6B080E3D6F0001D7DFCD
:10034000010101C0E9FF040E0224EA6EEF6A3C6B72
:100350003AC13BF13E6B080E3D6F0001C8DF02C0A1
:100360003CF101C03BF1040E01013B27000E3C2390
:100370003BC1E9FF040E3C25EA6EEF6A0001120062
:10038000010E0101396F39510F0807E339C13AF104
:100390000001BEDF0101392BF6D700011200296AE6
:1003A000286A01012F6B2F530AE1036A2F512A0F8C
:1003B000E96E000E0320EA6EEF6A2F2BF4D71C6A59
:1003C000010E1D6E1B6A000112006A6A686A9F0EA8
:1003D0006B6E3D0E696E6E6AD3DFE1DF160E706ED6
:1003E00068A602D00FDEFCD76D983FDF030E236EA8
:1003F0007BEF07F0698468986D8281EF07F0689C55
:1004000087EF07F034C124F01200246812000101C4
:10041000326B285029103DE032513F083AE31E501C
:10042000FC0F25E2040F000155EF02F027C003F096
:100430002650A7DEE8CF33F1010119D027C003F021
:10044000265075DEE8CF33F1010111D027C003F04B
:100450002650D7DEE8CF33F1010109D027C003F0E1
:100460002650BEDEE8CF33F1010101D00101262A7A
:10047000D8B4272A2850D8B4290628063251322B5E
:10048000500FE96E040EEA6ED8B0EA2A33C1EFFFCE
:10049000C0D72850291004E13251400801E01B6AFE
:1004A00032C134F10001AEDF1200E824F76AF736FA
:1004B000C50FF66E040EF7220A00F550FA6E08001A
:1004C000F550F96E2C043C044C045C04276A266A3F
:1004D0001E6A04011351010A000109E0030A0DE03C
:1004E000010A0FE0220A24E0030A3EE05FD0296AF5
:1004F000120E286E030E1E6E5BD0296A290E286E1E
:1005000057D0020E1E6E036A040112511F0FE96ECE
:10051000000E0320EA6E276AEFCF26F027C003F013
:10052000265000016EDE036A286E03C029F040D019
:10053000D89004011235036A000149DE0900F5CFA5
:1005400003F0266E03C027F0263C02D027520AE0B3
:1005500027C003F0265015DE036A286E03C029F079
:1005600027D002D052DF33D0D89004011435036A6B
:100570000001F5DD0900F5CF03F0266E03C027F07A
:10058000263C02D0275210E0010E1E6ED8900401C6
:100590001435036A0001ECDD0900F5CF03F0286E85
:1005A00003C029F005D002D030DF11D02EDF0FD0EC
:1005B0000401175308E1295203E12850165D03E2B4
:1005C000296A16C428F0010E1B6E000120DF1200FC
:1005D0000101315306E1040E236E0001D1DEE7D0A4
:1005E0000101050E236E040E346F900E336F010E61
:1005F000326F32510F08D8A0DAD032C13AF100017F
:1006000087DE0101356B036A3251000150DDFF08BE
:1006100065E0040E0101356FD8903235036A0001A0
:100620006EDD0900F5CF03F00101366F03C037F12D
:100630003C6B32C13BF13E6B080E3D6F000157DE53
:1006400001C039F1010E01010124016E000E0220EA
:10065000036E01C0E9FF040E0324EA6E36C1EFFF0A
:100660003C6B32C13BF13E6B080E3D6F00013FDE3B
:1006700001C039F1020E01010124016E000E0220B9
:10068000036E01C0E9FF040E0324EA6E34C1ECFFDF
:10069000ED5233C1EFFFD8903235036A00012FDDF0
:1006A0000900F5CF03F00101332703503423880EEE
:1006B000386F37B1388137B338833C6B32C13BF187
:1006C0003E6B080E3D6F000112DE010101C0E9FF23
:1006D000040E0224EA6E38C1EFFF0001036A010133
:1006E00032510001E4DCFF0847E0010135833C6B37
:1006F00032C13BF13E6B080E3D6F0001F8DD02C0D8
:100700003AF101C039F1040E01013927000E3A23F4
:10071000020E3925016E000E3A21036E01C0E9FF79
:10072000040E0324EA6E34C1ECFFED5233C1EFFF37
:10073000D8903235036A0001CADC0900F5CF03F016
:1007400001013327035034233C6B32C13BF13E6B34
:10075000080E3D6F0001CBDD02C03AF101C039F156
:10076000040E01013927000E3A2339C1E9FF040EB6
:100770003A25EA6E400EEF6E01013551060802E19E
:100780000E0E356F036A3251000191DC010803E05F
:10079000010135890001036A01013251700FE96ED0
:1007A0000F0E0320EA6E35C1EFFF322B22D7000176
:1007B0002CEF04F004011151000A00010DE0010AC0
:1007C00015E0020A20E0060A2AE0030A31E00E0AD8
:1007D00031E0010A37E046D01DC050F40401516BEE
:1007E000020E0101346F00010DDE3DD00401122D17
:1007F00007D0010E1D160101346B000103DE02D08B
:10080000000103DE30D00401122D06D01D8201014B
:10081000346B0001F7DD02D00001F7DD24D0020EB9
:100820001B6E12C425F00101346B0001EBDD1BD0FF
:100830004DDE19D01CC050F4010E0101346F0001CF
:10084000E1DD11D00401125101080AE312C41CF0C9
:1008500012C431F10001BCD60101346B0001D2DDBC
:10086000000101D0D2DD78EF05F01CC031F10401A8
:100870001151000A000107E00A0A0EE0010A2DE00A
:100880000D0A40E041D00401506B516B020E010192
:10089000346F0001B7DD39D0010131531BE0010E87
:1008A000315D036A00018ADC016E0401145DD8A089
:1008B00002D001010FD0036A14512A0FE96E000E15
:1008C0000320EA6EEFCF50F4010E0101346F0001F6
:1008D00099DD02D0000199DD18D0010131530FE0FC
:1008E000036A040114512A0FE96E000E0320EA6E18
:1008F00012C4EFFF0101346B000184DD02D000015E
:1009000084DD03D0E3DD01D080DD78EF05F0010167
:10091000329131BF3281319F32A119D03C6B31C14C
:100920003BF13E6B080E3D6F0001E1DC02C034F18B
:1009300001C033F1040E01013327000E342333C10B
:10094000E9FF040E3425EA6E880EEF6E0FD03C6B83
:1009500031C13BF13E6B080E3D6F0001C8DC010167
:1009600001C0E9FF040E0224EA6EEF6A000139EFCC
:1009700005F00101329131BF3281319F32A119D08E
:100980003C6B31C13BF13E6B080E3D6F0001AFDCAB
:1009900002C034F101C033F1040E01013327000E0F
:1009A000342333C1E9FF040E3425EA6E840EEF6E62
:1009B00010D03C6B31C13BF13E6B080E3D6F000126
:1009C00096DC010101C0E9FF040E0224EA6E840EE8
:1009D000EF6E000141EF05F00101329131BF32812C
:1009E000319F32A119D03C6B31C13BF13E6B080EF7
:1009F0003D6F00017CDC02C035F101C034F1040E12
:100A000001013427000E352334C1E9FF040E3525DA
:100A1000EA6EEFCF33F110D03C6B31C13BF13E6B4E
:100A2000080E3D6F000163DC010101C0E9FF040E07
:100A30000224EA6EEFCF33F133AF02D033B502D0E8
:100A4000000E01D0010E016E00014DEF05F014C43F
:100A50003BF126DC01522DE004011151010A000195
:100A600005E0020A0BE0030A11E022D014C431F1C0
:100A70004ED70101346B0001C5DC1BD014C431F129
:100A800078D70101346B0001BDDC13D00401506B39
:100A9000516B14C431F100019FD7015203E0010EE4
:100AA0000401506F020E0101346F0001ABDC01D074
:100AB000ACDC78EF05F0040111510001A6DC78EF01
:100AC00005F01B6A040110517F0B000A000107E0CA
:100AD000010A07E0030A07E0230A07E008D06AD604
:100AE00007D0C3D605D0B3D703D0E5D701D08DDC6E
:100AF000FAEF06F001013C6B31C13BF13E6B080E91
:100B00003D6F000177EC01F0010101C0E9FF040E27
:100B10000224EA6EEFCF33F13251020806E133AD21
:100B200002D0326B02D0010E326F325103081CE149
:100B3000840E336F3C6B31C13BF13E6B080E3D6F51
:100B4000000177EC01F002C037F101C036F1040E6C
:100B500001013627000E372336C1E9FF040E372581
:100B6000EA6E840EEF6E07D0322D03D0C80E336FBD
:100B700002D0880E336FD8903135036A00017FECC4
:100B800000F00900F5CF03F00101346F03C035F127
:100B90003C6B31C13BF13E6B080E3D6F000177ECC1
:100BA00001F001C036F1010E01010124016E000EB9
:100BB0000220036E01C0E9FF040E0324EA6E34C173
:100BC000EFFF35B1338135B333833C6B31C13BF13A
:100BD0003E6B080E3D6F000177EC01F0010101C092
:100BE000E9FF040E0224EA6E33C1EFFF0001120098
:100BF000036A01013651700FE96E0F0E0320EA6E91
:100C0000EF521BE03C6B36C13BF13E6B080E3D6F73
:100C1000000177EC01F002C038F101C037F1040E99
:100C200001013727000E382337C1E9FF040E3825AC
:100C3000EA6EEFCF39F139AF02D0000E01D0010ECC
:100C4000016E0001120031C136F1D2DF0152D8B479
:100C500085D001013C6B31C13BF13E6B080E3D6F0D
:100C6000000177EC01F002C037F101C036F1040E4B
:100C700001013627000E3723010E3625016E000EC6
:100C80003721036E01C0E9FF040E0324EA6E32C16E
:100C9000EFFF3451020820E13C6B31C13BF13E6B68
:100CA000080E3D6F000177EC01F002C037F101C082
:100CB00036F1040E01013627000E372336C1E9FF55
:100CC000040E3725EA6EEFCF35F135AD02D0346B27
:100CD00002D0010E346F1AD03451040817E13C6B76
:100CE00031C13BF13E6B080E3D6F000177EC01F026
:100CF000010101C0E9FF040E0224EA6EEFCF35F1D5
:100D000035AD03D0010E346F01D0346B342D03D0D8
:100D1000C80E356F02D0880E356F33B1358133B3CD
:100D200035833C6B31C13BF13E6B080E3D6F0001DA
:100D300077EC01F002C037F101C036F1040E010179
:100D40003627000E372336C1E9FF040E3725EA6E39
:100D500035C1EFFF010E016E04D00001000E016EDF
:100D60000101000112000101315300E100011200F4
:100D700032C16EFF0101325303E0040E236E02D034
:100D8000020E236E0001CAEF06F01C6A1B6A25C022
:100D900032F1EED7DBEF06F0010131530DE11B2CF0
:100DA00005D0000107EC02F006D001011B5002083B
:100DB00003E10001EAD70101000112002230010124
:100DC0002F6F2F332F331F0E2F1722524EE10401A6
:100DD00000513C0B0101306F430E0401001701016B
:100DE0003051340825E104010451800B01E0046B0B
:100DF000000167D66D98243C07D00101316B030ECA
:100E0000326F000177DE12D00101316B020E326FBA
:100E1000000170DE2450FE0809E00101316B336BE4
:100E200024C032F1040E346F00010DDF1CD001012B
:100E30003051040819E1316B000195DF0101316B7C
:100E4000020E326F000156DE2450FE080CE0243CF6
:100E500001D009D00101316B336B24C032F1010E96
:100E6000346F0001F0DE010122D02250040812E1AB
:100E70002468316B000190DF243C01D009D00101CE
:100E8000316B336B24C032F1020E346F0001DBDEB4
:100E90000DD0010122B406D02FC131F1000163DF72
:100EA00005D001012FC131F1000176DF0101000100
:100EB00093EF07F0A19A235201E13ED068523CE043
:100EC00068A404D069A402D02DEF01F06DA201D076
:100ED00033D068AA04D069AA02D045EF01F068A215
:100EE00004D069A202D04CEF01F068A004D069A040
:100EF00002D0E5EF01F068A804D069A802D0FAEFAB
:100F000001F068AC04D069AC02D0FFEF01F0010140
:100F10002E6B68A60AD069A608D06CCF22F000011B
:100F200002EC00F04BD702D0010105D001012E5197
:100F30002E2B0308EEE2000130EF00F05553422063
:100F4000436F6E6E656374696E670D0057616974F7
:100F50005F666F725F656E756D65726174696F6EE5
:100F60000D0055534220436F6E6E65637465640DCA
:100F70000000555342204E6F7420436F6E6E6563C0
:100F80007465640D000050494331384634353530BE
:100F90002052454144590D0050574D205354415261
:100FA000540D000050574D3A254C64445554593A5D
:100FB000254C64465245513A254C640D000050576B
:100FC0004D3A254C64445554593A254C6446524593
:100FD000513A254C640D000050574D3A254C64445D
:100FE0005554593A254C64465245513A254C640DA6
:100FF000000050574D3A254C64445554593A254CFD
:1010000064465245513A254C640D000050574D201E
:1010100053544F500D00504320434F4E4E454354C0
:1010200045440D00504320444953434F4E4E4543E1
:101030005445440D000050574D2053544152540D17
:10104000000050574D2053544F500D0050574D3A0B
:10105000254C64445554593A254C64465245513AFE
:10106000254C640D000050574D3A254C64445554AE
:10107000593A254C64465245513A254C640D0000BE
:101080000900F5520DE0F6CF11F1F7CF12F1F5504E
:101090009EA8FED7AD6E11C1F6FF12C1F7FFF0D7C3
:1010A00012006D6A696A080E6F6E94503009010172
:1010B000946E236A196AF2BE198EF29E0001CFEC7B
:1010C00001F019BEF28E66EF08F0EBD78BEF08F057
:1010D000196AF2BE198EF29ECFEC01F019BEF28EA3
:1010E0006D6A140E6F6E696A6D86010E236E7CEF59
:1010F00008F06DB601D0ECD7232C0BD06DBA09D017
:10110000686A696AA08AC00EF212110E696E020E38
:10111000236E1200DAD7EDDF23500208FCE1A1EFC5
:1011200008F01C5202E10400FCD7A8EF08F01C50A4
:10113000016EA9EF08F03C0EF66E0F0EF76EA0DF01
:10114000E9D7D7DF4C0EF66E0F0EF76E99DFE9D7B1
:10115000EED7015206E0620EF66E0F0EF76E90DFCC
:1011600005D0720EF66E0F0EF76E8ADF1200FF0EBC
:10117000926E936E966E800E946E8B940C0EBD6E76
:10118000B76AB66AC150C00BC16EC050C00B01092E
:10119000C06EC08EC2808B940C0EBD6EB76AB66AEC
:1011A000C00EF212860EF66E0F0EF76E69DFC3DF09
:1011B0004CEF10F09EAAFED7ABCF1AF0AECF01F0E5
:1011C0001AA202D0AB98AB8850EF10F08E0E006ED2
:1011D00013C101F012C102F0036A015209E102C019
:1011E00001F0026A080E005E015202E1006A08D0B6
:1011F000D89001BE04D0023601360006F9D7019E10
:1012000017EF09F001011135006E0036FC0E0016D3
:10121000C250C30B0010C26EC282C2B2FED7C4CF8E
:1012200003F0C3CF12F1C4CF13F10001CFD703C035
:101230008DF002C08CF001C08BF000C08AF08AC033
:1012400000F08BC001F08CC002F08DC003F01200E2
:1012500001011E51D8B471D0006E2251D8B46DD0A6
:10126000002604E3810E002668E204D07F0E005EB3
:1012700064E363E01FC126F12351261B1F8F238FD8
:1012800021512503F4CF28F120512403F4CF03F09A
:10129000F3CF27F12503F3502827F4502723000E1E
:1012A000032221512403F3502827F4502723000E52
:1012B000026A032202221F512503F3502727F4500C
:1012C0000322000E02221F512403F3500326F45080
:1012D0000222000E016A012221512303F350272725
:1012E000F4500322000E0222012220512303F35066
:1012F0000326F4500222000E01221F512303F35053
:101300000226F4500122002A01BE05D027370336F9
:10131000023601360006000E27AF0AD0032A022249
:101320000122015005E1025003E1035001E1002ACE
:1013300026BF018E26AF019E04D0006A016A026AB0
:10134000036A0001120001011E51B6081E6F036AF4
:101350001FC122F11F8FD8901F3320332133033256
:101360000232013200321E2FF6D722AF0BD0001E00
:10137000011E021E031E002AD8B4012AD8B4022A74
:10138000D8B4032A00011200D8B204D0010EEA6ECC
:10139000290EE96E006A016A026A036A0101296B7B
:1013A0002A6B2B6B2C6B28512711261125112CE051
:1013B000200E2D6FD8902137223723372437293735
:1013C0002A372B372C3728512C5D08E127512B5D0C
:1013D00005E126512A5D02E12551295D0FE32551E2
:1013E000295F2651D8A0263D2A5F2751D8A0273D46
:1013F0002B5F2851D8A0283D2C5FD88000360136BD
:10140000023603362D2FD6D729C1EFFF2AC1ECFFB4
:101410002BC1ECFF2CC1ECFF00011200E9500101CF
:10142000166F1551186F1BE014C121F113C120F183
:1014300012C11FF111C11EF1256B246B200E236F09
:10144000820E226F000104DF03C014F102C013F109
:1014500001C012F100C011F10101182FE5D714C12C
:1014600021F113C120F112C11FF111C11EF10001C0
:101470006ADF03C014F102C013F101C012F100C011
:1014800011F1010114AF0DD01607168B111F121F99
:10149000131F141F112BD8B4122BD8B4132BD8B48C
:1014A000142B3B0E1D6F9A0E1C6FCA0E1B6F1A6B0E
:1014B0000A0E186F1551D8B4162BD882010EEA6E99
:1014C000110EE96E14C124F113C123F112C122F1EE
:1014D00011C121F11DC128F11CC127F11BC126F149
:1014E0001AC125F1000150DF0150005213E1010142
:1014F0001529185DD8A402D000010CD016510DE0BA
:101500000F0B185D01E03CE216BF3AD016BD05D0C6
:10151000200E31D0200E0101161716AB0DD0169BF0
:101520001551D8A416070050166F2D0E9EA8FED791
:10153000AD6E1651006E166B1551185D0BE1005023
:10154000166F2E0E9EA8FED7AD6E1651006E200EA1
:101550001617000E300E16AB0ED0169B1551D8A4E0
:1015600016070050166F2D0E9EA8FED7AD6E1651B1
:10157000006E166B300E002600509EA8FED7AD6E92
:10158000D8921DC124F11CC123F11BC122F11AC143
:1015900021F1286B276B266B0A0E256F0001F4DE04
:1015A00003C01DF102C01CF101C01BF100C01AF103
:1015B0000101182F82D700011200000EE96E5DC0F4
:1015C00014F15CC013F15BC012F15AC011F10101BA
:1015D000156B000123DF3B0E9EA8FED7AD6E000EFB
:1015E000E96E61C014F160C013F15FC012F15EC01A
:1015F00011F10101156B000111DF3B0E9EA8FED712
:10160000AD6E000EE96E65C014F164C013F163C0E5
:1016100012F162C011F10101156B0001FFDE3B0EFA
:101620009EA8FED7AD6E000EE96E69C014F168C0C9
:1016300013F167C012F166C011F10101156B0001D1
:10164000EDDE3B0E9EA8FED7AD6E000EE96E6DC0BE
:1016500014F16CC013F16BC012F16AC011F10101F9
:10166000156B0001DBDE3B0E9EA8FED7AD6E000EB3
:10167000E96E71C014F170C013F16FC012F16EC049
:1016800011F10101156B0001C9DE3B0E9EA8FED7CA
:10169000AD6E000EE96E75C014F174C013F173C025
:1016A00012F172C011F10101156B0001B7DE3B0EA2
:1016B0009EA8FED7AD6E000EE96E79C014F178C019
:1016C00013F177C012F176C011F10101156B000121
:1016D000A5DE3B0E9EA8FED7AD6E000EE96E7DC066
:1016E00014F17CC013F17BC012F17AC011F1010139
:1016F000156B000193DE3B0E9EA8FED7AD6E000E6B
:10170000E96E81C014F180C013F17FC012F17EC078
:1017100011F10101156B000181DE3B0E9EA8FED781
:10172000AD6E000EE96E85C014F184C013F183C064
:1017300012F182C011F10101156B00016FDE3B0E49
:101740009EA8FED7AD6E000EE96E89C014F188C068
:1017500013F187C012F186C011F10101156B000170
:101760005DDE0D0E9EA8FED7AD6E1200010E0101CA
:101770001125016E000E1221036E01C015F1166FC6
:10178000196AF2BE198EF29E14C13CF113C13BF1ED
:101790003E6F01C03DF1000177EC01F019BEF28E01
:1017A00002C016F101010134026E1635036E0236D5
:1017B0000336FC0E021602C015F103C016F1D892D2
:1017C00048C024F147C023F146C022F145C021F1B1
:1017D000286B276B03C026F102C025F10001D4DD80
:1017E00012000900F6CF16F1F7CF17F1F5509EA8B9
:1017F000FED7AD6E16C1F6FF17C1F7FF0101152F19
:1018000001D002D00001EDD700011200EACF1DF196
:10181000E9CF1CF1010116AF08D01C8F1CA91C2BAD
:10182000151F161F152BD8B4162B1639F009186F73
:101830001827E20F196F320F1B6F16510F0B192764
:1018400019271B27E90F1A6F1A271A2715390F0BAB
:101850001A271B271A371B371B1F1B3715510F0B56
:101860001B271837070E176F0A0E1A071B27FDE3F1
:1018700019071A27FDE318071927FDE3170718278B
:10188000FDE3010EEA6E170EE96E070E1C151C9D96
:10189000E9061C1507E11CB9E92A1CB903D0200E82
:1018A000006E1CD0E9261B0EE95CD8B41C8DEF50ED
:1018B000006E08E11CBD06D01CB914D01CB702D0C4
:1018C000200E0BD01CAF06D02D0E006EED501C9DCF
:1018D0001C9F04D01C871C99300E002600509EA827
:1018E000FED7AD6EEE501CADDED700011200E95000
:1018F0000101196F18AF0DD01907198B151F161F8D
:10190000171F181F152BD8B4162BD8B4172BD8B403
:10191000182B3B0E206F9A0E1F6FCA0E1E6F1D6B89
:101920000A0E1B6FD882010EEA6E150EE96E18C101
:1019300024F117C123F116C122F115C121F120C1F3
:1019400028F11FC127F11EC126F11DC125F100019B
:101950001BDD0150005213E101011B51010AD8A403
:1019600002D000010CD019510DE00F0B1B5D01E0FE
:1019700028E219BF26D019BD05D0200E1DD0200E9B
:101980000101191719AB0AD0199B00C019F12D0ECE
:101990009EA8FED7AD6E19C100F0196B300E19ABC1
:1019A0000BD0199B00C019F12D0E9EA8FED7AD6E6D
:1019B00019C100F0196B300E002600509EA8FED70A
:1019C000AD6ED89220C124F11FC123F11EC122F1B6
:1019D0001DC121F1286B276B266B0A0E256F0001B4
:1019E000D3DC03C020F102C01FF101C01EF100C012
:1019F0001DF101011B2F96D700011200036A01019E
:101A00001151700FE96E0F0E0320EA6EEF521DE0C8
:101A1000196AF2BE198EF29E3C6B11C13BF13E6B0E
:101A2000080E3D6F000177EC01F019BEF28E02C086
:101A300013F101C012F1010101C0E9FF040E0224FB
:101A4000EA6EEFCF14F114AF02D0000E01D0010EF8
:101A5000016E0001DCEF12F0196AF2BE198EF29EDF
:101A600001013C6B16C13BF13E6B080E3D6F00015E
:101A700077EC01F019BEF28E01C020F1020E0101D7
:101A80000124016E000E0220036E01C0E9FF040E66
:101A90000324EA6EECCF1CF1ED52EFCF1BF1196A73
:101AA000F2BE198EF29E3C6B16C13BF13E6B080EE6
:101AB0003D6F000177EC01F019BEF28E01C020F1FC
:101AC000010E01010124016E000E0220036E01C00F
:101AD000E9FF040E0324EA6E1F6BEFCF1EF1196AB3
:101AE000F2BE198EF29E3C6B16C13BF13E6B080EA6
:101AF0003D6F000177EC01F019BEF28E010101C0CB
:101B0000E9FF040E0224EA6EEFCF1DF11DB11F8123
:101B10001DB31F831F511A5D08E303E119511E5DB8
:101B200004E21FC11AF11EC119F118C1EAFF17C161
:101B3000E9FF1CC1E2FF1BC1E1FF1AC102F019C19C
:101B400001F0015202E0022A02D0025206E0E6CF82
:101B5000EEFF012EFCD7022EFAD719C101F01AC1EF
:101B600002F00001BFEF0DF011C116F113C118F121
:101B700012C117F115C11AF114C119F16DD702C0C4
:101B800015F101C014F1196AF2BE198EF29E11C14D
:101B900031F1020E0101326F00017AEC05F019BE3D
:101BA000F28E010114C101F015C102F00001EBEF4A
:101BB00012F00FC1EAFF0EC1E9FF01011EC1EFFFE4
:101BC000E92AD8B4EA2AEF6A0E2BD8B40F2B000109
:101BD0001200E9500101166F1551186F1CE014C175
:101BE00021F113C120F112C11FF111C11EF1256BAA
:101BF000246B200E236F820E226F000128EC09F067
:101C000003C014F102C013F101C012F100C011F1C0
:101C10000101182FE4D714C121F113C120F112C121
:101C20001FF111C11EF10001A3EC09F003C014F172
:101C300002C013F101C012F100C011F1010114AF93
:101C40000DD01607168B111F121F131F141F112BF7
:101C5000D8B4122BD8B4132BD8B4142B3B0E1D6F51
:101C60009A0E1C6FCA0E1B6F1A6B0A0E186F155155
:101C7000D8B4162BD882010EEA6E110EE96E14C18B
:101C800024F113C123F112C122F111C121F11DC1AF
:101C900028F11CC127F11BC126F11AC125F1000151
:101CA000C4EC09F00150005213E101011529185D3F
:101CB000D8A402D000010CD016510DE00F0B185D16
:101CC00001E040E216BF3ED016BD05D0200E34D054
:101CD000200E0101161716AB0ED0169B1551D8A475
:101CE00016070050166F2D0E1E6F000162DF0101F6
:101CF0001651006E166B1551185D0CE10050166FF1
:101D00002E0E1E6F000155DF01011651006E200ED0
:101D10001617000E300E16AB0FD0169B1551D8A417
:101D200016070050166F2D0E1E6F000142DF0101D5
:101D30001651006E166B300E002600C01EF1000119
:101D400038DF0101D8921DC124F11CC123F11BC150
:101D500022F11AC121F1286B276B266B0A0E256F21
:101D60000001C4EC09F003C01DF102C01CF101C068
:101D70001BF100C01AF10101182F7CD700011200DD
:101D8000196AF2BE198EF29E11C136F1F8EC05F017
:101D900019BEF28E015254E0196AF2BE198EF29EFB
:101DA00001013C6B11C13BF13E6B080E3D6F000120
:101DB00077EC01F019BEF28E02C01AF101C019F1E0
:101DC000040E01011927000E1A23020E1925016EB7
:101DD000000E1A21036E01C0E9FF040E0324EA6E0F
:101DE000ECCF18F1ED52EFCF17F118C1EAFF17C190
:101DF000E9FF13C1E2FF12C1E1FF15C102F014C1F6
:101E000001F0015202E0022A02D0025206E0E6CFBF
:101E1000EEFF012EFCD7022EFAD7196AF2BE198EF8
:101E2000F29E11C131F115C133F114C132F116C165
:101E300034F1000123EC06F019BEF28E015002D0FD
:101E4000000E016E13EF10F001010F6B8E0E0E6F7E
:101E5000000EE96E5DC014F15CC013F15BC012F1BD
:101E60005AC011F1156B0001B4DE3B0E01011E6F6B
:101E700000019FDE000EE96E61C014F160C013F135
:101E80005FC012F15EC011F10101156B0001A1DE0E
:101E90003B0E01011E6F00018CDE000EE96E65C075
:101EA00014F164C013F163C012F162C011F10101B9
:101EB000156B00018EDE3B0E01011E6F000179DE05
:101EC000000EE96E69C014F168C013F167C012F129
:101ED00066C011F10101156B00017BDE3B0E0101B3
:101EE0001E6F000166DE000EE96E6DC014F16CC05D
:101EF00013F16BC012F16AC011F10101156B000101
:101F000068DE3B0E01011E6F000153DE000EE96E1C
:101F100071C014F170C013F16FC012F16EC011F1F5
:101F20000101156B000155DE3B0E01011E6F000122
:101F300040DE000EE96E75C014F174C013F173C079
:101F400012F172C011F10101156B000142DE3B0E6E
:101F500001011E6F00012DDE000EE96E79C014F143
:101F600078C013F177C012F176C011F10101156B41
:101F700000012FDE3B0E01011E6F00011ADE000E74
:101F8000E96E7DC014F17CC013F17BC012F17AC000
:101F900011F10101156B00011CDE3B0E01011E6FEA
:101FA000000107DE000EE96E81C014F180C013F15C
:101FB0007FC012F17EC011F10101156B000109DE35
:101FC0003B0E01011E6F0001F4DD000EE96E85C0BD
:101FD00014F184C013F183C012F182C011F1010128
:101FE000156B0001F6DD3B0E01011E6F0001E1DD06
:101FF000000EE96E89C014F188C013F187C012F198
:1020000086C011F10101156B0001E3DD010E010134
:10201000116F136B8E0E126F156B800E146F020E04
:10202000166F0001ADD671EF15F0F86AD09E078EDD
:10203000EA6AE96A1A6AB886E10EAF6E040EB06EFB
:10204000A60EAC6E900EAB6E3C6A3B6A3E6A3D6873
:10205000406A800E3F6E426A416A446A100E436EC7
:10206000020E486EDC0E476E6C0E466E456A4B6A79
:102070004C6A010E4D6E01010F6B0E6BC150C00B0F
:102080000F09C16E070EB46E1F6A040E206E0C0E8F
:10209000216E0001B7EF08F09EAA88D2DAEF08F0AF
:1020A00001C010F1010110517208D8A4AAD0116B1F
:1020B000000102EC09F003C05DF002C05CF001C059
:1020C0005BF000C05AF0010E0101116F000102EC3B
:1020D00009F003C061F002C060F001C05FF000C011
:1020E0005EF0030E0101116F000102EC09F003C064
:1020F00065F002C064F001C063F000C062F0040E3D
:102100000101116F000102EC09F003C069F002C087
:1021100068F001C067F000C066F0050E0101116FA4
:10212000000102EC09F003C06DF002C06CF001C0C8
:102130006BF000C06AF0060E0101116F000102ECA5
:1021400009F003C071F002C070F001C06FF000C070
:102150006EF0070E0101116F000102EC09F003C0DF
:1021600075F002C074F001C073F000C072F0080E88
:102170000101116F000102EC09F003C079F002C007
:1021800078F001C077F000C076F0090E0101116F00
:10219000000102EC09F003C07DF002C07CF001C038
:1021A0007BF000C07AF00A0E0101116F000102EC11
:1021B00009F003C081F002C080F001C07FF000C0D0
:1021C0007EF00B0E0101116F000102EC09F003C05B
:1021D00085F002C084F001C083F000C082F00C0ED4
:1021E0000101116F000102EC09F003C089F002C087
:1021F00088F001C087F000C086F0DDEC0AF0D6D18F
:1022000001011051700812E13FC04AF0000E0609AA
:10221000CA6E3DC0CBFF4AC0BEFF980EF66E0F0ED1
:10222000F76E000140EC08F0C1D1010110513108F6
:1022300060E1010E3F5E000E405A4050000802E28D
:10224000406A3F683FC04AF04AC0BEFF3EC012F13C
:102250003DC011F144C014F143C013F10001B6ECCC
:102260000BF003C014F102C013F101C012F100C061
:1022700011F1A40EF66E0F0EF76E040E0101156F2C
:102280000001F1EC0BF0100EE96E3EC016F13DC0FE
:1022900015F106EC0CF0AB0EF66E0F0EF76E050E98
:1022A0000101156F0001F1EC0BF0100EE96E40C05A
:1022B00016F13FC015F106EC0CF0B30EF66E0F0EE2
:1022C000F76E050E0101156F0001F1EC0BF0410EE8
:1022D000E96E14C118F113C117F112C116F111C141
:1022E00015F177EC0CF00D0E9EA8FED7AD6E5ED109
:1022F00001011051320860E1010E3F26000E40221C
:102300004050000802E2406A3F683FC04AF04AC0BD
:10231000BEFF3EC012F13DC011F144C014F143C0F4
:1023200013F10001B6EC0BF003C014F102C013F17D
:1023300001C012F100C011F1BE0EF66E0F0EF76E65
:10234000040E0101156F0001F1EC0BF0100EE96EA7
:102350003EC016F13DC015F106EC0CF0C50EF66E50
:102360000F0EF76E050E0101156F0001F1EC0BF079
:10237000100EE96E40C016F13FC015F106EC0CF0EE
:10238000CD0EF66E0F0EF76E050E0101156F0001F2
:10239000F1EC0BF0410EE96E14C118F113C117F105
:1023A00012C116F111C115F177EC0CF00D0E9EA8BB
:1023B000FED7AD6EFBD00101105133086FE1010E65
:1023C0003D5E000E3E5AD8903E30406E3D303F6E2E
:1023D0003E50000802E23E6A3D684050000802E2BA
:1023E000406A3F683FC04AF04AC0BEFF000E06097F
:1023F000CA6E3DC0CBFF3EC012F13DC011F144C0DA
:1024000014F143C013F10001B6EC0BF003C014F15A
:1024100002C013F101C012F100C011F1D80EF66E26
:102420000F0EF76E040E0101156F0001F1EC0BF0B9
:10243000100EE96E3EC016F13DC015F106EC0CF031
:10244000DF0EF66E0F0EF76E050E0101156F00011F
:10245000F1EC0BF0100EE96E40C016F13FC015F123
:1024600006EC0CF0E70EF66E0F0EF76E050E01018E
:10247000156F0001F1EC0BF0410EE96E14C118F17B
:1024800013C117F112C116F111C115F177EC0CF05F
:102490000D0E9EA8FED7AD6E89D0010110513408F3
:1024A0006FE1010E3D26000E3E22D8903E30406E78
:1024B0003D303F6E3E50000802E23E6A3D684050AB
:1024C000000802E2406A3F683FC04AF04AC0BEFFCF
:1024D000000E0609CA6E3DC0CBFF3EC012F13DC0E2
:1024E00011F144C014F143C013F10001B6EC0BF03C
:1024F00003C014F102C013F101C012F100C011F1C8
:10250000F20EF66E0F0EF76E040E0101156F00014C
:10251000F1EC0BF0100EE96E3EC016F13DC015F166
:1025200006EC0CF0F90EF66E0F0EF76E050E0101BB
:10253000156F0001F1EC0BF0100EE96E40C016F1C2
:102540003FC015F106EC0CF0010EF66E100EF76EA2
:10255000050E0101156F0001F1EC0BF0410EE96E63
:1025600014C118F113C117F112C116F111C115F1FF
:1025700077EC0CF00D0E9EA8FED7AD6E17D00101C2
:10258000105173080DE1BE6ABD50CF0BBD6E0C0E2D
:10259000F66E100EF76E000140EC08F007D0010156
:1025A0001051750804E100019BEC08F00101010ED7
:1025B000116F0001FEEF0CF00152D8B492D2010E5F
:1025C0000101116F136B2B0E126F156B080E146F38
:1025D0000001B4EF0DF02B50630A14E0060A19E075
:1025E000100A1EE0050AD8B4C5D0030AD8B4EFD04B
:1025F000170AD8B4F7D0020AD8B451D1140AD8B403
:10260000C6D16FD2160EF66E100EF76E40EC08F0C3
:1026100068D2240EF66E100EF76E40EC08F061D210
:102620000101116B000102EC09F003C05DF002C072
:102630005CF001C05BF000C05AF0010E0101116FA7
:10264000000102EC09F003C061F002C060F001C0BB
:102650005FF000C05EF0030E0101116F000102EC9B
:1026600009F003C065F002C064F001C063F000C06F
:1026700062F0040E0101116F000102EC09F003C0C9
:1026800069F002C068F001C067F000C066F0050E96
:102690000101116F000102EC09F003C06DF002C0EE
:1026A0006CF001C06BF000C06AF0060E0101116F02
:1026B000000102EC09F003C071F002C070F001C02B
:1026C0006FF000C06EF0070E0101116F000102EC07
:1026D00009F003C075F002C074F001C073F000C0CF
:1026E00072F0080E0101116F000102EC09F003C045
:1026F00079F002C078F001C077F000C076F0090EE2
:102700000101116F000102EC09F003C07DF002C06D
:102710007CF001C07BF000C07AF00A0E0101116F5D
:10272000000102EC09F003C081F002C080F001C09A
:102730007FF000C07EF00B0E0101116F000102EC72
:1027400009F003C085F002C084F001C083F000C02E
:1027500082F00C0E0101116F000102EC09F003C0C0
:1027600089F002C088F001C087F000C086F024EF35
:102770000FF0B7D13FC04AF0446A2CC043F0432C5D
:1027800008D0445206E1000E0409CA6E3DC0CBFFDA
:1027900015D04350040808E1445206E1000E050933
:1027A000CA6E3DC0CBFF0AD04350100807E1445227
:1027B00005E1000E0609CA6E3DC0CBFF4AC0BEFF50
:1027C000360EF66E100EF76E40EC08F08AD1BE6A37
:1027D000BD50CF0BBD6E420EF66E100EF76E40EC84
:1027E00008F07FD1406A2CC03FF04050000802E260
:1027F000406A3F683FC04AF04AC0BEFF3EC012F187
:102800003DC011F144C014F143C013F1B6EC0BF01C
:1028100003C014F102C013F101C012F100C011F1A4
:102820004C0EF66E100EF76E040E0101156F0001CE
:10283000F1EC0BF0100EE96E3EC016F13DC015F143
:1028400006EC0CF0530EF66E100EF76E050E01013D
:10285000156F0001F1EC0BF0100EE96E40C016F19F
:102860003FC015F106EC0CF05B0EF66E100EF76E25
:10287000050E0101156F0001F1EC0BF0410EE96E40
:1028800014C118F113C117F112C116F111C115F1DC
:1028900077EC0CF00D0E9EA8FED7AD6E22D13E6AED
:1028A0002CC03DF03E50000802E23E6A3D68432CD9
:1028B00008D0445206E1000E0409CA6E3DC0CBFFA9
:1028C00015D04350040808E1445206E1000E050902
:1028D000CA6E3DC0CBFF0AD04350100807E14452F6
:1028E00005E1000E0609CA6E3DC0CBFF3EC012F1E5
:1028F0003DC011F144C014F143C013F1B6EC0BF02C
:1029000003C014F102C013F101C012F100C011F1B3
:10291000660EF66E100EF76E040E0101156F0001C3
:10292000F1EC0BF0100EE96E3EC016F13DC015F152
:1029300006EC0CF06D0EF66E100EF76E050E010132
:10294000156F0001F1EC0BF0100EE96E40C016F1AE
:102950003FC015F106EC0CF0750EF66E100EF76E1A
:10296000050E0101156F0001F1EC0BF0410EE96E4F
:1029700014C118F113C117F112C116F111C115F1EB
:1029800077EC0CF00D0E9EA8FED7AD6EAAD001011B
:10299000116B000102EC09F003C05DF002C05CF0B5
:1029A00001C05BF000C05AF0010E0101116F00017F
:1029B00002EC09F003C061F002C060F001C05FF0FA
:1029C00000C05EF0030E0101116F000102EC09F07E
:1029D00003C065F002C064F001C063F000C062F0A3
:1029E000040E0101116F000102EC09F003C069F04F
:1029F00002C068F001C067F000C066F0050E01017A
:102A0000116F000102EC09F003C06DF002C06CF020
:102A100001C06BF000C06AF0060E0101116F0001E9
:102A200002EC09F003C071F002C070F001C06FF059
:102A300000C06EF0070E0101116F000102EC09F0F9
:102A400003C075F002C074F001C073F000C072F0F2
:102A5000080E0101116F000102EC09F003C079F0CA
:102A600002C078F001C077F000C076F0090E0101D5
:102A7000116F000102EC09F003C07DF002C07CF090
:102A800001C07BF000C07AF00A0E0101116F000155
:102A900002EC09F003C081F002C080F001C07FF0B9
:102AA00000C07EF00B0E0101116F000102EC09F075
:102AB00003C085F002C084F001C083F000C082F042
:102AC0000C0E0101116F000102EC09F003C089F046
:102AD00002C088F001C087F000C086F0DDEC0AF08B
:082AE00000D04CEF10F00300E0
:020000040030CA
:0E00000024CE3E1E0087A1000FC00FE00F406F
:00000001FF
;PIC18F4550
;CRC=716B  CREATED="05-Mar-14 15:40"
